:1000000000000120B5020000DD020000DF02000058
:10001000E1020000E3020000E50200000000000031
:10002000000000000000000000000000E7020000E7
:10003000E902000000000000EB020000ED020000F9
:10004000EF020000811D0000DD110000EF02000042
:10005000EF020000EF020000E50C0000EF020000DC
:10006000EF020000EF020000EF020000EF020000CC
:10007000EF020000EF020000EF020000EF020000BC
:10008000EF02000051070000EF020000EF02000045
:10009000EF020000F1070000EF020000EF02000095
:1000A000EF020000EF020000EF020000EF0200008C
:1000B000EF020000EF02000000000000000000005E
:1000C000EF020000EF020000EF020000EF0200006C
:1000D000EF020000EF020000EF020000000000004D
:1000E0000000000000000000000000000000000010
:1000F0000000000000000000000000000000000000
:1001000000000000000000000000000000000000EF
:1001100000000000000000000000000000000000DF
:1001200000000000000000000000000000000000CF
:1001300000000000000000000000000000000000BF
:1001400000000000000000000000000000000000AF
:10015000000000000000000000000000000000009F
:10016000000000000000000000000000000000008F
:10017000000000000000000000000000000000007F
:10018000000000000000000000000000000000006F
:10019000000000000000000000000000000000005F
:1001A000000000000000000000000000000000004F
:1001B000000000000000000000000000000000003F
:1001C000000000000000000000000000000000002F
:1001D000000000000000000000000000000000001F
:1001E000000000000000000000000000000000000F
:1001F00000000000000000000000000000000000FF
:1002000010B5054C237833B9044B13B10448AFF350
:1002100000800123237010BD880000200000000032
:100220000433000008B5034B1BB103490348AFF387
:10023000008008BD000000008C0000200433000096
:10024000154B002B08BF134B9D46A3F5803A0021A8
:100250008B460F461348144A121A01F0FFFF0F4B4A
:10026000002B00D098470E4B002B00D09847002061
:10027000002104000D000D48002802D00C48AFF307
:10028000008001F0C7FF2000290001F0A7FD01F068
:10029000ADFF00BF000008000000012000000000CA
:1002A0000000000088000020FC0400200000000086
:1002B000000000000649074A074B9B1A03DD043B78
:1002C000C858D050FBDC01F0B7FDFFF7B9FF0000C4
:1002D000103300000000002088000020FEE7FEE749
:1002E000FEE7FEE7FEE7FEE7FEE7FEE7FEE7FEE7E6
:1002F0004FF0A04310B44FF480204FF400344FF47B
:1003000000214FF48012C3F80C45C3F80C05C3F864
:100310000C15C3F80C255DF8044B7047C20730B4C8
:100320001AD54FF0A0430322C3F844274FF40035F9
:10033000C3F848274FF48024C3F84C274FF400211A
:10034000C3F850274FF48012C3F80855C3F8084586
:10035000C3F80815C3F8082583070AD54FF0A04352
:100360000C22C3F83427C3F83827C3F83C27C3F856
:10037000402730BC704700BF00B585B00023039014
:10038000194601AA44F20100CDE9013300F004F856
:1003900005B05DF804FB00BF72B6094B1B68DB07B4
:1003A00000D500BEBFF34F8F0649074BCA6802F461
:1003B000E0621343CB60BFF34F8F00BFFDE700BF88
:1003C000F0ED00E000ED00E00400FA0559B142B1A3
:1003D000531E1A4005D1826001608380C2601046BE
:1003E0007047092070470E20704700BF10B4846822
:1003F000C26803468088121B904203D204205DF835
:10040000044B7047DA681C6802400020A154DA6887
:100410000132DA605DF8044B704700BF0346806824
:10042000DA6890420DD010B498689A881C6802402F
:100430000020A25C0A709A6801329A605DF8044B51
:1004400070470520704700BF30B50478012C83B099
:1004500026D0B4B1022C12D1384B394D1A78C1686C
:10046000AA5C01918DF80040002A35D0181D0122A8
:10047000344901F073FB344B68461B68984703B05E
:1004800030BD32493248FFF7C9FF002833D02E4B28
:1004900003221B688DF800206846984703B030BDE2
:1004A00043682C4D19782846FFF7A0FFD8B9AA68F1
:1004B000EB689A4205D0244B8DF800001B68684613
:1004C0009847A968EB68AA885B1A9A421ED2224B09
:1004D00001221A7003B030BD03F10C00012219494A
:1004E00001F0C6F8C7E7184B01908DF800401B6873
:1004F00068469847E5E71148114A0378D35CB3B1E1
:1005000001221249043001F0C7FAB8E70B480C4A3F
:100510000378D35C2BB101220A49043001F01EFBA1
:10052000ADE7012207490C3001F0A2F8A7E701224C
:1005300006490C3001F028F8A1E700BF00000020B8
:10054000EC040020CC000020A4000020D0000020FB
:10055000BC000020A8000020B80000202DE9F045D4
:10056000324C89B02260002954D00C4680468A88DB
:100570002F4809689A46FFF729FF10B109B0BDE876
:10058000F085A289A1682B48FFF720FF0028F5D14C
:10059000294D98F810C0294ED8F814700FCD6C462C
:1005A0000FC495E80F0098F811501CF1000C18BF0B
:1005B0004FF0010C002D84E80F00D8F80850D8F84F
:1005C0000C40D8F80430069714BF0E2200228DF894
:1005D0001520D8F800701A4A8DF81CA069463046DC
:1005E0008DF814C00197CDE90245009300F03CFB63
:1005F0000028C3D1D8F80030124A01331070BDD0A2
:10060000114A3378D35C4BB1301D01220F4901F000
:10061000A5FAB3E7072009B0BDE8F08506F10C00A4
:1006200001220A4901F024F8A8E700BFA400002035
:10063000A8000020BC0000201432000000000020B0
:1006400049040000B8000020EC040020CC00002089
:1006500070B5114C014611482678FFF7DFFE0546BC
:100660000EB9284670BD0E480E4A0378D35C0022AE
:10067000227053B1043001220B4901F06FFA0028B7
:10068000EFD0FFF779FE284670BD012206490C30F5
:1006900000F0EEFFF3E700BFB8000020A800002044
:1006A00000000020EC040020CC00002070B50146C2
:1006B0001548FFF79BFE044608B1204670BD134D58
:1006C000134E2B78F35CA3B1281D01F039FA0028F2
:1006D000F3D110490C48FFF7A1FE0028EDD12B788B
:1006E0000C49F35C01224BB10B48BDE8704001F0AE
:1006F000D3B905F10C0000F0AFFFE8E70748BDE80B
:10070000704000F041BF00BFBC000020000000208E
:10071000EC040020D0000020040000200C00002089
:1007200070B5161E07DD0C468D1914F8010BFFF786
:10073000BDFFA542F9D1304670BD00BF10B50C46D3
:100740002046FFF785FF0528FAD0012010BD00BF25
:10075000F8B52049204B0024C1F84041C1F844417C
:10076000C1F84841C1F84C41C1F80041C1F8044109
:100770001B6833B31948D1F8045501681A686D1A1B
:1007800025F07F45AA4227460DD8197CDE69AD1AAF
:10079000144419B11F74D3E9052090471EB13346A4
:1007A0001A68AA42F1D90E490E4A0B7812789A4279
:1007B00008D00D490D4A41F823404FF40013C2F808
:1007C0000031F8BD531CDBB2022B08BF00230B70B5
:1007D000EFE700BF00100140F4010020F00100200D
:1007E000ED010020EC010020E401002000E100E028
:1007F0002DE9F04FB34AB44913780978B34E9942C2
:1008000085B0356800F08D810133DBB2022B08BF63
:100810000023AF491370AF4AD1F800C052F823202B
:100820000CEB020323F07F430B60002D00F0C68128
:100830002B689A42C0F0C48100273846BE4603E0C8
:100840000B68934200F27081EC68C5F800E0D21AA0
:100850001844E9693CB10CEB000323F07F43C5E980
:100860000134EF612F460D460029E9D131600025A2
:100870004FF0010A984B9949DFF8749243F0010355
:1008800001934FF00008002F33D0D7E901BE3C465A
:10089000FF698F4B92481A68ABEB020323F07F434A
:1008A000834200F204817344236000203268E061D7
:1008B000C4E9010001202074002A00F0F6801068CD
:1008C000984208D3E2E0DEF800C0DC4580F0E38027
:1008D00072465B466046D2F81CE0A3EB000BBEF10B
:1008E000000FF0D1C4F800B0C4F81CE0D461002FB0
:1008F000CBD191F801E00878864519D084460CEBFD
:100900004C0C8B7801EBCC0C421CD0B283429CF88F
:100910000430087004BF00200870022BDCF8084087
:1009200000F08380032B75D0012B5AD07045E5D1A0
:100930003668B8F1000F01D1AE422CD086B3644ABC
:10094000684B1468D3F80475DFF8A081366898F80E
:1009500000203D1B25F07F450335002A00F0EB8089
:10096000AE422CBFA41964195E4A24F07F44C2F839
:100970004045D2F80435DB1BE41B23F07F4324F011
:100980007F440333A34200F2EF80002389F8003054
:1009900005B0BDE8F08FBAF1000FF6D0002ECED131
:1009A000504D514A4C4C4FF400314FF480330127E5
:1009B000C2F880103C43C5F848334FF43C60C5F89A
:1009C00008336F60A047424BAF604FF43C601E603D
:1009D000A047464B1E70002389F8003005B0BDE8E3
:1009E000F08F237C002BA1D1DCF80CB0C4F804B04C
:1009F000DCF810E0C4F808E0DCF81420E26099F8B4
:100A00000020DCF81800A061002A3FF442AF6360C8
:100A10009B463EE73368002B3FF46EAF00221A740A
:100A2000DB69002BFBD1336063E7336853B19C4231
:100A300060D09B4602E0944207D09346DBF81C202E
:100A4000002AF8D10023237470E7A34554D0E0694D
:100A5000D4F800E0CBF81C0000285CD09C4602686B
:100A600072440260634518BF4FF001080023087804
:100A700091F801E0237459E7326800230120C4E9AA
:100A80000033A360E36120747AB110683460C31A44
:100A90001360E261F7E66044C31ACEF80030C4F890
:100AA00000B0C4F81CE0D46121E73460EBE6A2EBAF
:100AB0000B0222F07F427245DED2AEEB02032360CE
:100AC000F3E600BFEC010020ED010020F40100205E
:100AD000F0010020E401002040320000D40000209A
:100AE000FEFF7F000010014000E100E0E101002076
:100AF000E0010020A3462246D3F81CC0C6F800C07F
:100B0000BCF1000F45D0D069D2F800E0CBF81C0052
:100B10000028A4D1A6E70023087891F801E0237407
:100B200004E70027BA46A5E631600D469B1A0B6024
:100B30004FF0010A9EE62449244A4FF48030C3F85E
:100B400044034FF0010AC3F804034FF40030C1F826
:100B5000800142F001020860C3F800A04FF43C603D
:100B6000904788F800A0FBE6184BD2F80415C2F8AD
:100B7000401543F001034FF43C609847124B4FF48B
:100B80000032C3F80021002389F8003005B0BDE829
:100B9000F08FCDE902320E4BDFF83CE00120986087
:100BA000019B89F80000CEF800C04FF43C609847E4
:100BB000D6F800C00749DDE90232A4E72F4656E621
:100BC00029460027B2E700BF00E100E04032000004
:100BD00000100140D4000020F001002072B6024A4B
:100BE0001368013313607047F8010020034A13684B
:100BF000013B136003B962B6704700BFF8010020E3
:100C000030B585B00478094A094B45688DF8004035
:100C1000047AC068039053F8213001958DF808409C
:100C200052F821106846984705B030BDFC010020FD
:100C30000002002030B585B0047845688DF800408A
:100C4000D0E90240064A074B039053F82130019542
:100C50008DF8084052F821106846984705B030BD1D
:100C6000FC01002000020020F0B5194B0678194D58
:100C70000C6991F81DE045F826408446164803F8B3
:100C800006E040F826200C4617460FCC89B06D468A
:100C90000FC594E80F0085E80F000496BEF1000F21
:100CA0000AD0002F0D4A69460CF1040008BF3A46ED
:100CB00000F010FE09B0F0BD002F094A69460CF1A2
:100CC0000C0008BF3A4600F08DFB09B0F0BD00BF34
:100CD000EC040020FC01002000020020010C0000B8
:100CE000350C00002DE9F04186B00023BD4A019388
:100CF0001168012900F0C4811E46BB4B1A68012A05
:100D000000F0B081B94B1A68012A00F09D81B84B00
:100D10001A68012A00F08A81B64B1A68012A00F08D
:100D20007781B54B1A68012A00F04E81B34B1A68DF
:100D3000012A00F03B81B24B1A68012A08D0B14B5E
:100D40001A68012A00F0A881EEB906B0BDE8F0816A
:100D5000AD4AD2F804231206F1D500221A601968B0
:100D60000491603319680498012946F080060AD17D
:100D70001A601B6805934FF0A043059AD3F810350D
:100D8000019346F00046A14F01250024A30003F182
:100D900080432E4203F5C0434FEA45050BD0D3F8FC
:100DA000100557F82420D3F81015C0F30420C1F320
:100DB000014102B190470134082CE7D1002EC4DA7A
:100DC00000224FF0FF33CDE90223904C012502AE03
:100DD00094F950104F1C37D0C9B221F0C00006ABB7
:100DE000C2089F1801F0070317F80CCC05FA03F3AB
:100DF0001CEA030F28D004EB000C89099CF930C0D1
:100E000054F82C80B8F1000F00F09F81032900F006
:100E10009F81820002F1A04217F8147CD2F800C72B
:100E20001F40CCF3014C0BD0BCF1020F0CD10329B5
:100E300000F0C5810027B8F1000F06D0C04704E0DC
:100E4000BCF1030F00F0A981002794F95110481C50
:100E500031D0C9B221F0C00006AB4FEAD00E03EB8F
:100E60000E0C01F007031CF80C2C05FA03F31A42D0
:100E700021D02218890992F9302054F82220002A22
:100E800000F08181032900F081814FEA800E0EF18C
:100E9000A0481CF814ECD8F800C71EEA030FCCF3E6
:100EA000014C00F03A81BCF1020F04D1032900F09B
:100EB000898102B1904794F952104A1C31D0C9B2CD
:100EC00021F0C00006AB4FEAD00E03EB0E0C01F090
:100ED00007031CF80C2C05FA03F31A4221D0221840
:100EE000890992F9302054F82220002A00F041812B
:100EF000032900F041814FEA800E0EF1A0481CF852
:100F000014ECD8F800C71EEA030FCCF3014C00F034
:100F1000EC80BCF1020F04D1032900F0568102B12C
:100F2000904794F953104B1C31D0C9B221F0C00046
:100F300006AB4FEAD00E03EB0E0C01F007031CF8D2
:100F40000C2C05FA03F31A4221D02218890992F9D0
:100F5000302054F82220002A00F00181032900F0FB
:100F600001814FEA800E0EF1A0481CF814ECD8F86D
:100F700000C71EEA030FCCF3014C00F09B80BCF1CC
:100F8000020F04D1032900F0238102B19047002F02
:100F90003FF4DBAE4FF0A043019AD3F810359A42EC
:100FA0003FF4D3AE029A0193039211E7164AD2F8A6
:100FB000042351067FF5BFAE00221A601B6804931C
:100FC000049B46F04006B6E60F4AD2F8042390068A
:100FD0007FF5ACAE00221A601B680493049B46F0B8
:100FE0002006A3E600610040046100400861004063
:100FF0000C61004010610040146100401861004025
:101000001C6100407C61004000600040080200203C
:10101000714AD2F80423D4067FF583AE00221A6009
:101020001B680493049B46F010067AE66A4AD2F8DD
:10103000042315077FF570AE00221A601B68049325
:10104000049B46F0080667E6634AD2F80423570774
:101050007FF55DAE00221A601B680493049B46F086
:10106000040654E65C4AD2F8042392077FF54AAEA0
:1010700000221A601B680493049B46F0020641E6B6
:101080005549D1F8046316F001063FF436AE1360FB
:1010900013680493049B30E600221A601B680593D2
:1010A0004FF0A043059AD3F810350193002E3FF47A
:1010B00087AE66E6BCF1030F7FF469AF03297FF4C6
:1010C00064AF4FF4003CD8F8003723F44033C8F83D
:1010D0000037D8F8003743EA0C03C8F80037002A75
:1010E0003FF458AF0137FFB250E7BCF1030F7FF474
:1010F00018AF03297FF413AF4FF4003CD8F8003742
:1011000023F44033C8F80037D8F80037013743EAF2
:101110000C03FFB2C8F8003701E7BCF1030F7FF4FE
:10112000CAAE03297FF4C5AE4FF4003CD8F80037AF
:1011300023F44033C8F80037D8F80037013743EAC2
:101140000C03FFB2C8F80037B3E603297FF47CAE86
:1011500016F802C04CEA030C06F802C059E603294F
:101160007FF415AF16F80E8048EA030806F80E80E3
:10117000F7E603297FF4D5AE16F80E8048EA030897
:1011800006F80E80B7E603297FF495AE16F80E80B8
:1011900048EA030806F80E8077E603297FF44BAE91
:1011A0004FF40037D2F8003723F44033C2F8003749
:1011B000D2F800373B43C2F8003701273BE64FF433
:1011C0004037EFE74FF4403CB0E74FF4403C95E741
:1011D0004FF4403C77E700BF00600040014B1B68C4
:1011E000184700BF6402002038B50C4B984213D159
:1011F00000200D46FFF7F2FC094B1C7924B10020BA
:10120000FFF7F4FC112038BD012220461D601A7141
:10121000FFF7ECFC204638BD002038BD0020004020
:101220006402002030B56D4AD2F8043399058BB0C2
:1012300066D5D2F82431002B62D00023C2F82431C5
:10124000D2F8243103934FF40171654B0398C2F82F
:10125000081393F8291009B9012151605F4902224E
:101260008DF81820D1F88024C1F880249869D968B5
:1012700009920022CDE90710C3E90622D3E9001440
:1012800006A8A047554AD2F81C31C3B1544B186A7E
:101290005969884269D293F8280000F0FF040028B9
:1012A00063D1C2F81C41D2F81C11029102999C68CA
:1012B000186A196A205C01311962C2F81C05474A94
:1012C000D2F84431D3B10021454BC2F84411D2F8D1
:1012D000440193F829100090009800295AD19A6986
:1012E00062B10022586AD9689A610122CDE90710DB
:1012F0008DF8182006A8D3E9001290470BB030BD36
:10130000364AD2F804335B07BCD5D2F80831002B3B
:10131000B8D0334B996900293FD00021C2F8081199
:10132000D2F8081104910499D868596AD2F818259E
:1013300042545A6A996901325A625A6A8A42A1D160
:10134000DA691968002A31D0D8685D6A1C699A6127
:10135000079000220120DC60DA615A628DF81800E3
:1013600008955B6806A898478CE71C4A0020C2F8DD
:101370001C01D2F81C210192019A00299FD09A6881
:101380008DF8180008915861079206A8D3E9001259
:10139000904794E701211160A1E7C2F80811D2F843
:1013A000080105900598D2F81825C6E793F829207A
:1013B00012B90A4A01205060084A4FF40170C2F87D
:1013C0000803586ADA6808900024012007928DF813
:1013D00018005A689C6106A8904753E70020004017
:1013E0006C0200202DE9F041634F06792C2505FBA6
:1013F000067582B095F82A30002B40F090800C469C
:1014000005465E4900689046FFF7EEFE002840F072
:1014100082802368591C0CD001224FF0A04102FAAF
:1014200003F3C1F80835236803F5E073032241F89C
:10143000232063685A1C06D003F5E0734FF0A042E6
:10144000002142F823102B68A269C3F82425217DCE
:10145000637D2A680B43C2F86C35D4E900122B680F
:10146000C3F81425C3F80C15237D012B61D02C2360
:1014700003FB06F3FA18C2F804802269FA50B8F1A7
:10148000000F35D02A68237F3D4C0021C2F81C1183
:10149000D2F81C2100922A68DDF800C0C2F844117D
:1014A000D2F844112A6801910199C2F804432A68CC
:1014B000120B51B25B010029DBB234DB01F1604158
:1014C00001F5614181F800332A68120B42F3C4032D
:1014D00023F0604323F0030303F1604303F561430A
:1014E00002F01F02012101FA02F2C3F880211A6002
:1014F0002C232C6803FB0673002204250121C4F869
:10150000005583F82A10C3E9062283F829205A617E
:1015100002B0BDE8F081112002B0BDE8F0810820E2
:1015200002B0BDE8F081174902F00F0211440B76BA
:10153000CAE7A368591C06D003F5E0734FF0A04238
:10154000002142F82310E3685A1C0DD001224FF00D
:10155000A04102FA03F3C1F80835E36803F5E0732C
:10156000032241F82320E3682A68A168C2F80835FD
:10157000C2F810157BE700BF6C02002025120000A6
:1015800080000200FCEC00E02DE9F041314E0579CD
:101590002C2303FB05630446586984B000284CD112
:1015A0001862996083F828005A612268C2F81C0109
:1015B000D2F81C11226802910121029F91602268D9
:1015C000D3F808C0C2F81C01D2F81C11019101998E
:1015D0001F6A196A1CF8077001311962C2F81C757C
:1015E0005A6812B104B0BDE8F0811A6A5F692168D7
:1015F00097421BD9864602E093F828200ABBD1F80F
:101600001C21002AF8D0C1F81CE1D1F81C2103925A
:10161000039AD3F820801A6A1CF8088001321A62F3
:10162000C1F81C851A6ABA42E9D32168D1F81C3185
:10163000002BFBD00123CB6004E0112004B0BDE8F7
:10164000F0810F202C2303FB056500236B6104B0A0
:10165000BDE8F0816C0200200379044A2C2101FBD3
:1016600003235869003018BF012070476C02002026
:10167000F0B44D4F06792C2303FB067386B05D68EA
:1016800025B103684FF40174C3F808432C2303FB0E
:1016900006739C6934BB93F829509A61D9605C62E7
:1016A000DC6185B90368C3F82451D3F824210368A9
:1016B0000192019AC3F80851D3F8082103680292F5
:1016C000012202991A602C2303FB067302685968F1
:1016D00071B14FF40173C2F804330021084606B01B
:1016E000F0BC7047DC69002C53D11961DA61EAE77C
:1016F000C2F84411D2F844210392039A0268D2F846
:101700002441D2F80851D2F8441155B9002933D1F7
:10171000002CF4D02C2303FB06760023B3610321B5
:10172000DCE7002CF6D149BB9C69C2F8081184B1F2
:10173000D2F808410494049CDD685C6AD2F818254C
:101740002A555A6A9C6901325A625A6A9442D5D81B
:1017500006E0D2F808410594059CD2F818255B6A8A
:101760002C2303FB0676002296F82930B26163B180
:10177000036801221A60B1E7002CCBD12C2303FBB4
:1017800006760023B3610F21A8E7036801225A609F
:10179000A4E735B103684FF40172C3F804231121A3
:1017A0009CE711219AE700BF6C020020F0B5474B7F
:1017B000D3F8242189B0002A55D00021C3F8241180
:1017C000D3F82421029202228DF81020029AD3F835
:1017D00080043F4AC3F880040790D3F83C05D368DF
:1017E0008DF81800C2E9061105931168536804A822
:1017F0009847364BD3F844214AB10021344AC3F804
:101800004411D3F8444190690194019CE0B92F4BF5
:10181000D3F82021B2B100212D4AC3F82011D3F80A
:10182000204150690094009C60B1D3F84C05936846
:101830008DF818008DF810105161059304A8D2E9B5
:101840000013984709B0F0BDD3F83C35D0688DF847
:1018500018300123916105908DF8103004A8D2E969
:1018600000139847D3E7D3F810110029C1D0C3F86B
:101870001021D3F810111648039103998169D3F808
:101880003C458C42B5D1C569C768D0E90016E4B2C1
:1018900095B1D3F800C285612CF02005C261C3F870
:1018A00000520369C36001228DF8184005978DF836
:1018B000102004A8B0479CE7012385618DF81840EB
:1018C00005978DF8103004A8B04792E7002000403B
:1018D000980200202DE9F04307796B4E4FEAC708C4
:1018E00008EB070306EB830385B093F82030002B49
:1018F00040F09E800D460446644900689146FFF71B
:1019000073FC002840F090802B68591C0CD00122F9
:101910004FF0A04102FA03F3C1F808352B6803F534
:10192000E073032241F823206B685A1C06D003F5AC
:10193000E0734FF0A042002142F823102368AA6907
:10194000C3F82425297D6A7D23680A43C3F86C25E2
:10195000D5E900312268C2F80C35C2F814152B7D88
:10196000012B6FD008EB07029200B318C3F8049064
:101970002B69B350B9F1000F45D021682B7F444D3E
:101980000022C1F81021D1F8101100912168DDF872
:1019900000C0C1F82021D1F8201101912168DDF8A3
:1019A00004C0C1F82421D1F8241102912168DDF886
:1019B00008C0C1F84421D1F8441122680391039969
:1019C000C2F804532268120B51B25B010029DBB24A
:1019D00032DB01F1604101F5614181F80033226899
:1019E000120B42F3C40323F0604323F0030303F11B
:1019F000604303F5614302F01F02012101FA02F284
:101A0000C3F880211A604744226806EB870600234A
:101A10000124082186F82040C2F80015C6E90633E3
:101A2000736105B0BDE8F083112005B0BDE8F08317
:101A3000082005B0BDE8F083164902F00F021144FA
:101A40000B76CCE7AB68591C06D003F5E0734FF07A
:101A5000A042002142F82310EB685A1C0DD001224D
:101A60004FF0A04102FA03F3C1F80835EB6803F523
:101A7000E073032241F82320EB682268A968C2F8CA
:101A80000835C2F810156DE798020020AD17000068
:101A900010030200FCEC00E001F06043B3F1005FD2
:101AA0002DD1F0B50679254F4FEAC60C0CEB060494
:101AB00007EB840483B06369002B38D1A1606261B5
:101AC0000568C5F82031D5F820E10568CDF804E0B7
:101AD000DDF804E0C5F85831D5F858E10568CDF8CF
:101AE00000E0DDF800E0C5F84415C5F848250268B7
:101AF0000121916062682AB1184603B0F0BD10233D
:101B000018467047026800E0ABB9D2F82011D2F84D
:101B100058310029F8D0002B18BF0F230CEB060218
:101B200007EB820200211846516103B0F0BD11237A
:101B3000184603B0F0BD0F23F0E700BF9802002065
:101B40000379054A03EBC30302EB830358690030B2
:101B500018BF0120704700BF9802002001F06043C9
:101B6000B3F1005F75D1F0B40579464CEB005E1916
:101B700004EB860682B0766826B107684FF4047CD1
:101B8000C7F808C32B4404EB83039D69002D41D1A2
:101B90009A61DD61D9600368C3F81051D3F8106110
:101BA00003680196019EC3F84451D3F84451036879
:101BB0000095009DC3F83415C3F838250368012249
:101BC0001A6005790368EE00721904EB820252680C
:101BD0005AB14FF40472C3F80423002002B0F0BCE1
:101BE000704700293FD1002843D1D3F81021D3F802
:101BF0004411D3F82401002AF3D0354400284FF0D3
:101C0000000304EB850418BF0320994218BF0F207E
:101C1000A361E3E7DD69F5B91961DA610368C3F827
:101C20001051D3F8106103680196019EC3F8445126
:101C3000D3F8445103680095009DC3F83415C3F8E8
:101C400038250268D2F8003243F02003C2F800328F
:101C5000B7E71020704796B103684FF40472C3F8D9
:101C600004231120BAE7354404EB85040F20A26158
:101C7000B4E7354404EB85040320A161AEE71120ED
:101C8000ACE700BF9802002000B50378022B83B0B8
:101C900010D0012B0ED053B90DF10700FEF7D8FC80
:101CA0000028F9D1064B9DF80720C3F8242503B07E
:101CB0005DF804FB4068FEF75FFB03B05DF804FBD2
:101CC000001000404FF0804300220121F0B4C3F81F
:101CD00000211A461960D2F80031002BFBD0224BAC
:101CE000224D234F234E244A00210724C3F80845E0
:101CF000C3F810150124C3F81C550825C3F82405A2
:101D0000C3F82C150220C3F83045C3F81455C3F8A6
:101D100018754FF6FF77C3F83405C3F83C75C3F860
:101D200038651826C3F85465144EC3F80465202698
:101D3000C3F8045382F80163C2F880011060D3F83D
:101D4000002242F01002C3F80022C3F800111A4624
:101D50005C60D2F80031002BFBD000210123C2F8D7
:101D60000C119360F0BC70470010004074696275FC
:101D7000200004022110010000E100E0BC0200206C
:101D8000124BD3F80024EAB170B50024104DC3F80B
:101D90000C412B784BB10F4E2B193046597800F07F
:101DA00065FA2B780134A342F6DC084B0948D3F8D6
:101DB000481500F05BFA084800F058FA034B01227E
:101DC0009A6070BD014B01229A607047001000407C
:101DD000BC020020603200006832000030B50120F3
:101DE0008BB0FEF79BFA104DFEF782FA0020FFF74A
:101DF00069FF0E4B00930FCD04AC0FC495E80300B0
:101E000084E803000A4C0B4A4FF4807507236946A7
:101E100004A80195CDE90245FEF7A0FB08B920BF53
:101E2000FDE7FEF7A9FAFAE748320000E0020020D9
:101E3000E0030020891C000030B4B84B1B78062B4F
:101E400020D0B74B1B68062B00F08180B54AD2F832
:101E5000883043F47003C2F88830BFF34F8FBFF36C
:101E60006F8F4FF01023D3F80022002AC0F2868132
:101E7000D3F80432002BC0F28181AB4BAB4A1A601D
:101E800030BC7047AA4B1B681D07DAD1A94B1B68F1
:101E900003F0F002302A00F09B8003F0E003402BB7
:101EA00000F09680A34B1B6803F0F003302B00F08A
:101EB000A080A04B1B6803F0F002302A77D003F01B
:101EC000E003402B73D09B4B1B6803F0F003302BD7
:101ED00000F01481974B1B6803F0F002302A52D0B7
:101EE00003F0E003402B4ED0924B1B6803F0F0034D
:101EF000302B00F0F5808F4B1B6803F0F003302B84
:101F000000F0D7808B4B1B6803F0F003502B7ED082
:101F1000884B1B6803F0F002302A23D003F0E00363
:101F2000402B1FD0834B1B6803F0F002302A03D0F4
:101F300003F0E003402B84D14FF08043D3F800241A
:101F4000D20744BF6FF00102C3F8002479E77A4B4F
:101F50001B68062B7FF47AAF784A136843F48063DA
:101F6000136073E7764B6D4A1B681278754903F06E
:101F70004F03062A0B607FF464AF6D4B1B68190793
:101F80007FF45FAFCEE7654A11784FF080430022BF
:101F90000629C3F80C21C3F81021C3F838257FF4B3
:101FA00050AF634B1B681B077FF44BAF9CE7664B3E
:101FB0005A4A1B6812786549C3F34233062A0B60FC
:101FC0007FF43FAF5A4B1B6819077FF43AAF7AE7AB
:101FD0005F4B524A1B6812785E49C3F30423062AFA
:101FE0000B607FF42EAF524B1B681C077FF429AFA8
:101FF00058E74A4B584A1B7858491160062B7FF422
:1020000020AF4B4B1B6818077FF41BAF51E74FF015
:102010008052534BD2F80414C3F82015D2F8081498
:10202000C3F82415D2F80C14C3F82815D2F81014EC
:10203000C3F82C15D2F81414C3F83015D2F81814BC
:10204000C3F83415D2F81C14C3F84015D2F8201484
:10205000C3F84415D2F82414C3F84815D2F828144C
:10206000C3F84C15D2F82C14C3F85015D2F830141C
:10207000C3F85415D2F83414C3F86015D2F83814E4
:10208000C3F86415D2F83C14C3F86815D2F84014AC
:102090002248C3F86C15D2F844140278C3F87015BE
:1020A000062A7FF4CEAE224B1B6818077FF4C9AE18
:1020B0002EE71A4B2B4C1B782B492C482C4A052514
:1020C000256001250D6000243F21062B046011606E
:1020D0007FF4B7AE164B1B681C077FF4B2AE11E756
:1020E0000E4B244A1B780321062B11607FF4A9AE06
:1020F0000F4B1B681D077FF4A4AEFCE61E4A074980
:10210000D368097823F080730629D3607FF499AEF1
:10211000074B1B681A077FF494AEDBE6E00F00F074
:102120003001001000ED00E0140000200090D0030A
:10213000E40F00F0E80F00F0340100103C170040FD
:1021400058020010E40E0040440200103C0500401C
:10215000240300104035014074C007400DF0ADBAB3
:1021600000C00040105600408856004018560040FD
:1021700014560040A0050040F0ED00E0184A01238D
:10218000C2F80435D2F80034002BFBD04FF01023F6
:102190001521134AC3F80012D2F80034002BFBD0EB
:1021A0004FF0102315210E4AC3F80412D2F8003460
:1021B000002BFBD000230A49C2F80435D1F80034C3
:1021C000002BFBD0BFF34F8F0649074BCA6802F4C0
:1021D000E0621343CB60BFF34F8F00BFFDE700BF4A
:1021E00000E0014000ED00E00400FA0508B5074BEF
:1021F000044613B10021AFF30080054B1868836AD1
:1022000003B19847204600F0F7FF00BF0000000030
:102210006C32000070B50D4D0D4C641BA4100026EF
:10222000A64209D10B4D0C4C00F0E8FF641BA41032
:102230000026A64205D170BD55F8043B98470136EB
:10224000EEE755F8043B98470136F2E77C000020A2
:102250007C0000207C000020800000200244034617
:10226000934200D1704703F8011BF9E70FB40A4B02
:1022700013B51C6824B1A36913B9204600F066F8B1
:1022800005AB049AA1680193204600F083F902B0DF
:10229000BDE8104004B0704718000020002310B5BE
:1022A0000446C0E90033836081814366C281C0E98E
:1022B00004338361194608225C30FFF7CFFF054BDA
:1022C0006362054BA362054BE362054B2462236303
:1022D00010BD00BF192B00003B2B0000732B00002A
:1022E000972B0000014900F0AFB800BF712E00002D
:1022F00070B54A1E682555430E4605F1740100F07D
:10230000C5F8044640B10021C0E900160C30A060B9
:1023100005F16802FFF7A2FF204670BD014800F0FA
:10232000B2B800BFF5040020014800F0ADB800BF0E
:10233000F5040020014800F0A6B800BFF00400201A
:10234000014800F0A1B800BFF004002010B5044619
:10235000FFF7F0FFA3691BB1BDE81040FFF7F0BF26
:10236000C4E912332365134B134A1B68A262A342CC
:1023700004BF0123A361204600F020F860602046DE
:1023800000F01CF8A060204600F018F80022E06081
:1023900004216068FFF782FF01220921A068FFF78E
:1023A0007DFF02221221E068FFF778FF0123A3617D
:1023B000D2E700BF6C320000E5220000F8B5074606
:1023C000FFF7ACFF1E4B1E68B36913B93046FFF729
:1023D000BDFF4836D6E90134013B03D533680BB362
:1023E0003668F7E7B4F90C50D5B9164BE36004F141
:1023F0005800656600F046F8FFF796FF2560C4E9CF
:102400000155C4E90455A5610822294604F15C0080
:10241000FFF724FFC4E90D55C4E912552046F8BD65
:102420006834D9E704213846FFF762FF044630607C
:102430000028D5D1FFF778FF0C233B60EEE700BF03
:102440006C3200000100FFFF2DE9F8438046894609
:1024500000F14804002614B93046BDE8F883D4E9F9
:102460000175013F01D52468F5E7AB89012B07D938
:10247000B5F90E30013303D029464046C84706431C
:102480006835EEE77047704770470000F8B5CD1C1F
:1024900025F0030508350C2D38BF0C25002D064608
:1024A00001DBA94203D90C2333600020F8BD00F002
:1024B000E7FD21490A6814469CB9204F3B6823B9BF
:1024C0002146304600F018FB38602946304600F0BF
:1024D00013FB431C23D10C233360304600F0D6FDA0
:1024E000E3E723685B1B17D40B2B03D923601C4441
:1024F000256004E06368A2420CBF0B605360304665
:1025000000F0C4FD04F10B00231D20F00700C21AE7
:10251000CCD01B1AA350C9E722466468CCE7C41C80
:1025200024F00304A042E3D0211A304600F0E4FA7C
:102530000130DDD1CFE700BFE0040020E40400203B
:102540009368013B002B10B4936008DA9469A342AE
:1025500001DB0A2903D15DF8044B00F021BB1368AD
:10256000581C1060197008465DF8044B7047F8B5A8
:1025700006460F461446D518AC4201D1002007E0AC
:102580003A4614F8011B3046FFF7DAFF431CF3D13B
:10259000F8BD00002DE9F04F0D469DB014461E46D3
:1025A000074618B183690BB9FFF7D0FE854B9D42F2
:1025B0001BD17D686B6ED90705D4AB899A0502D40F
:1025C000A86DFFF760FFAB891B0701D52B69EBB93D
:1025D0002946384600F048FBC0B16B6ED8070ED5CF
:1025E0004FF0FF301DB0BDE8F08F774B9D4201D119
:1025F000BD68DFE7754B9D4208BFFD68DAE7AB8930
:102600009905EDD4A86DFFF73FFFE9E70023099393
:1026100020238DF82930DFF8B891039630238DF808
:102620002A304FF0010A23461E4613F8012B0AB147
:10263000252AF9D1B6EB040B0BD05B46224629467E
:102640003846FFF794FF013000F0A380099B5B44FC
:1026500009933378002B00F09C8000234FF0FF3269
:10266000CDE905230136049307938DF853301A936F
:102670003446052214F8011B554800F0B1FC049BB8
:10268000C0B9DA0644BF20228DF85320180744BF92
:102690002B228DF8532032782A2A13D0079A3446F9
:1026A00000200A26214611F8013B303B092B4BD96B
:1026B00070B914E0A0EB09000AFA00F01843049086
:1026C0002646D5E7039A111D12680391002A01DB03
:1026D000079204E0524243F00203079204932378E6
:1026E0002E2B0CD163782A2B33D1039B1A1D1B6828
:1026F0000392002BB8BF4FF0FF3302340593354EE1
:1027000021780322304600F06BFC38B14023801B57
:1027100003FA00F0049B03430134049314F8011BF3
:102720002D488DF82810062200F05AFC00283FD0D2
:102730002A4B13BB039B073323F007030833039390
:10274000099B434409936EE706FB023201200C46C5
:10275000A8E700230134059319460A26204610F8FD
:10276000012B303A092A03D9002BC8D00591C6E7BE
:1027700006FB012101230446F0E703AB00932A4640
:10278000174B04A93846AFF30080B0F1FF3F8046F5
:10279000D6D16B6ED90705D4AB899A0502D4A86D42
:1027A000FFF772FEAB895B063FF51AAF099819E790
:1027B00003AB00932A460A4B04A9384600F088F878
:1027C000E3E700BF90320000B0320000703200003A
:1027D000D0320000D6320000DA32000000000000E3
:1027E0006F2500002DE9F04791461F468A680B6966
:1027F000DDF820809342B8BF1346C9F8003091F845
:10280000432006460C4612B10133C9F80030236854
:10281000990642BFD9F800300233C9F80030256864
:1028200015F0060507D104F1190AE368D9F800206C
:102830009B1AAB4228DC94F843302268003318BF5F
:10284000012392062DD404F1430239463046C04795
:10285000013020D02368E568D9F8002003F0060392
:10286000042B08BFAD1AA36822690CBF25EAE575E1
:1028700000259342C4BF9B1AED184FF000091A348B
:102880004D451AD1002008E0012352463946304612
:10289000C047013003D14FF0FF30BDE8F08701356C
:1028A000C3E7E1185A1C302081F84300224494F811
:1028B000451082F843100233C5E70123224639460A
:1028C0003046C0470130E6D009F10109D8E70000E1
:1028D0002DE9F04306460C4601F14300097E85B020
:1028E0006E29984617460C9B00F0BA8024D86329BD
:1028F00039D00AD8002900F0C380582900F091800F
:1029000004F1420584F8421035E0642901D06929B8
:10291000F6D125681A6815F0800F02F104012CD059
:1029200012681960002A03DA2D23524284F84330DA
:10293000DFF8BCC10A233FE0732900F0A58008D866
:102940006F2921D07029DBD1226842F02002226059
:1029500003E0752918D07829D2D1782284F845204F
:10296000DFF890C161E01A68111D1960136884F8DE
:10297000423004F14205012393E01268196015F01A
:10298000400F18BF12B2CDE7D4F800C01A681CF08F
:10299000800F02F104051D6001D0126803E01CF0F5
:1029A000400FFAD01288DFF848C16F290CBF082306
:1029B0000A23002184F843106568A560002DA2BF9A
:1029C000216821F0040121600AB9002D46D0054696
:1029D000B2FBF3F103FB112E93421CF80EE005F855
:1029E00001ED39D9082B0BD12368DA0708D5236903
:1029F00062689A42DEBF302305F8013C05F1FF35DD
:102A0000401B2061CDF800803B4603AA214630469A
:102A1000FFF7E8FE013049D14FF0FF3005B0BDE8C7
:102A2000F083DFF8CCC084F845101D68216855F8A4
:102A3000042B1D600D060BD5CD0744BF41F02001CE
:102A400021601AB9236823F0200323601023B0E724
:102A50004B0648BF92B2EFE70A46B9E70546C1E721
:102A60001A68D4F800C06169151D1D601CF0800F44
:102A7000136801D0196003E01CF0400FFAD01980F0
:102A8000002323610546BDE71A68111D196015680A
:102A900062680021284600F0A3FA08B1401B60607C
:102AA00063682361002384F84330ABE723692A4637
:102AB00039463046C0470130AED023689B0713D457
:102AC000E068039B9842B8BF1846A7E701234A462F
:102AD00039463046C04701309ED00135E368039A3D
:102AE0009B1AAB42F2DCEBE7002504F11909F5E78C
:102AF000E1320000F232000038B5064C00230546F2
:102B00000846236000F06AFB431C02D1236803B12E
:102B10002B6038BDF804002010B50C46B1F90E103A
:102B200000F008FB0028ABBF636DA3891B1823F4DA
:102B30008053ACBF6365A38110BD2DE9F0411F46F2
:102B40008B89DB0505460C46164605D50223002277
:102B5000B1F90E1000F0C8F9A389B4F90E1023F4EE
:102B60008053A38132463B462846BDE8F04100F041
:102B700069B810B50C46B1F90E1000F0B5F9431C58
:102B8000A38915BF606523F4805343F48053A38168
:102B900018BFA38110BDB1F90E1000F0D3B800002A
:102BA000F8B50E461446054618B183690BB9FFF710
:102BB000CDFB214B9C422BD16C68A369A360A389F8
:102BC0001A072FD523696BB323692068C01A63697C
:102BD000F6B28342374604DC2146284600F048F925
:102BE00030BBA368013BA36023685A1C22601E709F
:102BF00063690130834204D0A389DB0706D50A2E1E
:102C000004D12146284600F033F988B93846F8BD8A
:102C10000A4B9C4201D1AC68CFE7094B9C4208BFEC
:102C2000EC68CAE72146284600F01EF80028CBD001
:102C30004FF0FF37EAE700BF90320000B0320000EB
:102C40007032000038B5074C054608461146002290
:102C500022601A46FDF764FD431C02D1236803B1CC
:102C60002B6038BDF8040020324B70B51D68064655
:102C70000C4625B1AB6913B92846FFF767FB2E4B0D
:102C80009C420FD16C68B4F90C309AB215072CD461
:102C9000D00611D40922326043F04003A3814FF0E3
:102CA000FF303EE0254B9C4201D1AC68EBE7244B62
:102CB0009C4208BFEC68E6E7510712D5616B41B151
:102CC00004F14403994202D0304600F0E5F90023B4
:102CD0006363A38923F02403A38100236360236932
:102CE0002360A38943F00803A38123694BB9A38917
:102CF00003F42073B3F5007F03D02146304600F083
:102D000029F9A28912F001030CD00023A3606369A2
:102D10005B42A361236953B9B4F90C3013F080000E
:102D2000BAD170BD920758BF6369A360F2E7002073
:102D3000F7E700BF1800002090320000B03200001A
:102D40007032000038B5064C002305460846236063
:102D500000F024FA431C02D1236803B12B6038BD74
:102D6000F80400208A892DE9F041054610070C4639
:102D700058D44B68002B05DC0B6C002B02DC0020C8
:102D8000BDE8F081E66A002EF9D0002312F48052EB
:102D90002F682B6032D0606DA3895A0705D5636810
:102DA000C01A636B0BB1236CC01A00230246E66A9B
:102DB000216A2846B047431CA38906D129681D29EA
:102DC0002CD82A4ACA40D60728D500226260D904E6
:102DD0002269226004D5421C01D12B6803B96065C9
:102DE000616B2F600029CAD004F14403994202D0DC
:102DF000284600F051F900206063C1E7216A0123F1
:102E00002846B047411CC7D12B68002BC4D01D2BCE
:102E100001D0162B01D12F60B1E7A38943F0400305
:102E2000A381ADE70F69002FA9D093070E6808BFF3
:102E30004B690F6018BF0023A6EB07088B60B8F141
:102E4000000F9CDD43463A46216AA66A2846B047F1
:102E5000002806DCA38943F04003A3814FF0FF3034
:102E60008EE70744A8EB0008E9E700BF0100402017
:102E700038B50B6905460C4613B90025284638BD00
:102E800018B183690BB9FFF761FA144B9C421BD14F
:102E90006C68B4F90C30002BEFD0626ED00704D40C
:102EA000990502D4A06DFFF7EEFA28462146FFF7F8
:102EB00059FF636EDA070546E0D4A3899B05DDD48C
:102EC000A06DFFF7E1FAD9E7054B9C4201D1AC6850
:102ED000DFE7044B9C4208BFEC68DAE79032000061
:102EE000B03200007032000038B5074C0546084685
:102EF0001146002222601A4600F068F9431C02D1F4
:102F0000236803B12B6038BDF804002070B50E466D
:102F1000B1F90E10002996B014461D4607DA0023B9
:102F20002B60B3891A0610D44FF480630EE06A4612
:102F300000F012F90028F2DB019A02F47042A2F5C7
:102F400000535A425A412A60EEE740230020236092
:102F500016B070BD8B8973B59D0706460C4607D524
:102F600004F14703236023610123636102B070BD54
:102F700001AB6A46FFF7CAFF009905463046FFF7E6
:102F800085FA48B9B4F90C309A05EFD423F003035D
:102F900043F00203A381E3E70D4BB362A3892060F2
:102FA00043F08003A381009B6361019B20615BB1BF
:102FB000B4F90E10304600F0E1F828B1A38923F0EF
:102FC000030343F00103A381A3891D43A581CDE73A
:102FD000E5220000000000000000000000000000EA
:102FE00001F0FF01102A2BDB10F0070F08D010F8BA
:102FF000013B013A8B422DD010F0070F42B3F6D1BE
:10300000F0B441EA012141EA014122F007047FF0D6
:1030100000070023F0E80256083C85EA010586EA2D
:10302000010685FA47F5A3FA87F586FA47F6A5FA69
:1030300087F68EB9EED1F0BC01F0FF0102F0070275
:1030400032B110F8013B013A83EA010313B1F8D120
:103050000020704701387047002D06BF3546033801
:10306000073815F0010F07D1013015F4807F02BF3A
:10307000013015F4C03F0130F0BC0138704700BF8B
:103080000148FFF700BA00BFF10400200148FFF734
:10309000FBB900BFF104002038B50546002945D032
:1030A00051F8043C0C1F002BB8BFE418FFF7E8FFF1
:1030B0001F4A1368104633B9636014602846BDE8A0
:1030C0003840FFF7E3BFA3420CD92168621893424E
:1030D00004BF1A685B68636004BF52182260046012
:1030E000ECE713465A680AB1A242FAD9196858188F
:1030F000A0420BD120680144581882421960DDD1EA
:10310000106852685A6001441960D7E702D90C234D
:103110002B60D3E7206821188A4204BF11685268E7
:10312000626004BF091821605C60C7E738BD00BF5A
:10313000E004002038B5074C054608461146002239
:1031400022601A46FDF7FAFA431C02D1236803B144
:103150002B6038BDF804002038B5074C0023054625
:1031600008461146236000F021F8431C02D1236871
:1031700003B12B6038BD00BFF804002038B5064C01
:10318000002305460846236000F018F8431C02D1CE
:10319000236803B12B6038BDF8040020024B58228D
:1031A0001A604FF0FF307047F8040020024B58229D
:1031B0001A604FF0FF307047F8040020024B58228D
:1031C0001A600020704700BFF8040020024B58220C
:1031D0001A604FF0FF307047F8040020044A054998
:1031E0001368002B08BF0B46184410601846704740
:1031F000E804002000050020FEE700BFF8B500BF8E
:10320000F8BC08BC9E467047F8B500BFF8BC08BCC7
:103210009E467047FFFFFFFFFFFFFFFFFFFFFFFF1F
:10322000FFFFFFFF00000000000000000000D601CB
:103230000701000000000000000000000000000086
:103240000338FDD8704700000800000006000000A9
:1032500005000000070000000000000000B0AF0300
:1032600025303258000000000A0000001C00002039
:10327000000000000000000000000000000000004E
:10328000000000000000000000000000000000003E
:10329000000000000000000000000000000000002E
:1032A000000000000000000000000000000000001E
:1032B000000000000000000000000000000000000E
:1032C00000000000000000000000000000000000FE
:1032D000232D302B2000686C4C00656667454647FF
:1032E0000030313233343536373839414243444582
:1032F00046003031323334353637383961626364F1
:083300006566000000000000FA
:0833080038CFFF7F0100000037
:1033100000000000002000400000000000200040ED
:10332000000000000090D0031C00002000000000FE
:1033300090320000B0320000703200000000000047
:10334000000000000000000000000000000000007D
:10335000000000000000000000000000000000006D
:10336000000000000000000000000000000000005D
:10337000000000000000000000000000000000004D
:103380000000000000000000000000002502000016
:043390000102000036
:04000003000002B542
:00000001FF
