:100000000080002081010000C1010000C301000048
:1000100000000000000000000000000000000000E0
:10002000000000000000000000000000C50100000A
:100030000000000000000000C7010000C90100002E
:10004000CB0100001D1C000081190000CB01000045
:10005000CB01000000000000CB010000CB0100003C
:10006000CB010000CB010000CB010000CB01000060
:10007000CB010000CB010000CB010000CB01000050
:10008000CB010000CB010000CB010000CB01000040
:10009000CB010000CB010000CB010000CB01000030
:1000A000CB010000CB0100000000000000000000B8
:1000B0000000000000000000000000000000000040
:1000C00010B5064C2378002B07D1054B002B02D02E
:1000D000044800E000BF0123237010BD7800002019
:1000E0000000000038310000044B10B5002B03D095
:1000F0000349044800E000BF10BDC04600000000F6
:100100007C00002038310000164B002B00D1144B2E
:100110009D46402292029A1A924600218B460F4633
:100120001348144A121A01F039FF0F4B002B00D06C
:1001300098470E4B002B00D0984700200021040068
:100140000D000D48002802D00C4800E000BF01F06F
:1001500001FF2000290001F0D7FD01F0E5FEC046B7
:1001600000000800008000200000000000000000E7
:10017000780000203803002000000000000000008C
:1001800003210A4802680A430260094802680A43D8
:1001900002600849084A094B9B1A03DD043BC85812
:1001A000D050FBDC01F0ECFDFFF7AEFF2405004072
:1001B0005405004044310000000000207800002079
:1001C000FEE7FEE7FEE7FEE7FEE7FEE780B582B06A
:1001D00000AF7860A023DB051800BD4602B080BDEB
:1001E00090B585B000AF78600C0010001900FB1CC2
:1001F000221C1A70BB1C021C1A707B1C0A1C1A7071
:100200003B1D1800FFF7E2FF0300FB60FB1C1A78A0
:10021000BB1C1B785B001A437B1C1B789B001A439A
:100220002023FB181B781B021A4311002423FB1800
:100230001B781B047A681943FB68C132FF329200B5
:10024000D150C046BD4605B090BD80B584B002AF68
:100250007860786800230193002300930023012233
:100260000121FFF7BDFFC046BD4602B080BD80B58D
:1002700084B000AF78603B1D1800FFF7A7FF0300B4
:10028000FB607B6801229A40FB681100180000F0B7
:100290002FF8C046BD4604B080BD80B584B000AF25
:1002A00078603B1D1800FFF791FF0300FB607B683F
:1002B00001229A40FB681100180000F027F8C046A0
:1002C000BD4604B080BD80B582B000AF78603960B3
:1002D0003B68002B04D17B681800FFF7DEFF03E0CA
:1002E0007B681800FFF7C3FFC046BD4602B080BD63
:1002F00080B582B000AF786039607A68A123DB00F6
:100300003968D150C046BD4602B080BD80B582B0CC
:1003100000AF786039607B6803493A685A50C0463C
:10032000BD4602B080BDC0460C05000080B582B05D
:1003300000AF7860054A7B68D3181B78012118004C
:10034000FFF7C1FFC046BD4602B080BD543000007B
:1003500080B582B000AF7860054A7B68D3181B78FF
:1003600000211800FFF7AFFFC046BD4602B080BDB8
:100370005430000080B582B000AF00237B6006E0FF
:100380007B681800FFF7E4FF7B6801337B607B68C4
:10039000022BF5D9C046BD4602B080BD80B582B003
:1003A00000AF00237B6006E07B681800FFF7BEFF0C
:1003B0007B6801337B607B68022BF5D9C046BD4664
:1003C00002B080BD80B582B000AF00237B6009E041
:1003D000094A7B68D3181B781800FFF736FF7B6843
:1003E00001337B607B68022BF2D9FFF7C3FFC04665
:1003F000BD4602B080BDC0465430000080B582B01A
:1004000000AF78607B680122134001D0FFF7DAFF6C
:10041000C046BD4602B080BD80B586B000AF7860F2
:100420000C217B1800221A607B1800225A607B186E
:100430007A689A607B1804481A00002100F016F8C8
:10044000C046BD4606B080BD0140000080B500AF8B
:10045000BFF34F8F034B044ADA60BFF34F8FC046A0
:10046000FDE7C04600ED00E00400FA0580B584B069
:1004700000AFF860B9607A6072B600BEFFF7E6FFC1
:10048000C046BD4604B080BD80B584B000AF786082
:100490007B689B68FB607B68DA68FB68D31A18008E
:1004A000BD4604B080BD80B582B000AF78600A0060
:1004B000FB1C1A707B681A687B68DB68796889881E
:1004C0000B40D318FA1C12781A707B68DB685A1C30
:1004D0007B68DA60C046BD4602B080BD80B584B09E
:1004E00000AFF8607A600A203B180A1C1A80FB688B
:1004F0001A68FB6899683B181B88CB18F9688988CB
:100500000B40D3181A787B681A70C046BD4604B0F9
:1005100080BD80B582B000AF786039603A687B6892
:1005200000211800FFF7DAFF7B689B685A1C7B6884
:100530009A60C046BD4602B080BD80B584B000AFB1
:10054000F860B960BB1D1A80BB68002B01D10E2377
:100550001CE0BB1D1B88002B06D0BB1D1B88013B6C
:10056000BA1D1288134001D009230FE0FB68BA6856
:100570001A60BB1D1B88013B9AB2FB689A80FB681E
:1005800000229A60FB680022DA6000231800BD4652
:1005900004B080BD80B582B000AF78600A00FB1C5B
:1005A0001A707B681800FFF76FFF02007B689B885A
:1005B0009A4208D8FB1C1A787B6811001800FFF7D4
:1005C00072FF002300E004231800BD4602B080BD86
:1005D00080B582B000AF786039607B681800FFF7A3
:1005E00053FF031E07D03A687B6811001800FFF71D
:1005F00090FF002300E005231800BD4602B080BD37
:1006000080B586B000AFF860B960FB1D1A7000239A
:100610007B61FB68181DFB1D1A78BB68190000F090
:1006200093FE03007B617B691800BD4606B080BD68
:10063000B0B584B000AF78600F257B1900221A7026
:100640007B6804337C19180000F0F0FE030023706F
:100650007B191B781800BD4604B0B0BD80B586B0CC
:1006600000AFF860B960FB1D1A7000237B61FB6866
:10067000181DFB1D1A78BB68190000F03BFF030032
:100680007B617B691800BD4606B080BD80B584B033
:1006900000AF78607B689B68FB607B68DA68FB680A
:1006A000D31A1800BD4604B080BD000090B587B0D5
:1006B00000AF786039607B681B78012B04D0022B77
:1006C0003FD0002B51D069E07B685B681A78354BCE
:1006D00011001800FFF75EFF03007B617B69002BB0
:1006E0000CD00C217B1801221A707B187A695A6091
:1006F0002D4B1B687A18100098470EE0294B180004
:10070000FFF7C4FF031E08D00C217B1800221A70CB
:10071000254B1B687A1810009847224B1800FFF7EA
:10072000B5FF02001F4B9B889A4206D81F49204BF9
:1007300001221800FFF792FF30E01E4B01221A70D1
:100740002CE00C243B1902221A707B68DA683B19F2
:100750005A601649164B01221800FFF77FFF124B13
:100760001B683A191000984718E0134A134B110000
:100770001800FFF72DFF031E06D10F490C4B012275
:100780001800FFF73DFF08E00C217B1803221A70C8
:10079000054B1B687A1810009847C046C046BD46F6
:1007A00007B090BDA0000020940000209C00002015
:1007B000000000209D00002098000020B0000020D4
:1007C000B0B590B000AFF860B9607A601A00FB1C59
:1007D0001A70414B7A681A60BB68002B01D107235D
:1007E00075E0BB681968BB685B689AB23B4B180040
:1007F000FFF7A3FE0300FB63FB6BBB63BB6B002B2C
:1008000001D0BB6B63E0BB689968BB68DB689AB2D8
:10081000334B1800FFF791FE0300FB63FB6B7B6318
:100820007B6B002B01D07B6B51E010217B182D4A94
:1008300031CA31C331CA31C311CA11C3FB685A6905
:100840007B189A61FB681B7C5A1E9341DBB21A002D
:100850007B181A757B18FA1C12781A77FB685B7C78
:10086000002B01D00E2200E0002210217B185A75C7
:10087000FB68DA687B189A60FB689A687B18DA6014
:10088000FB681A687B185A60FB685A687B181A6004
:10089000154A7918154B180000F02EF90300FB6378
:1008A000FB6B3B633B6B002B01D03B6B0FE0104BB2
:1008B00000221A70FB681B68013307D00D490B4BEF
:1008C00001221800FFF7CAFE030000E00023180011
:1008D000BD4610B0B0BDC04694000020A00000206E
:1008E000B000002058300000AD06000000000020DD
:1008F0009D0000209C00002090B587B000AF78607C
:1009000017243B19134A12781A707A68124B110097
:100910001800FFF75DFE03003B613B191B78002BBD
:1009200013D00C4B00221A700C490D4B01221800F9
:10093000FFF794FE0300FB60FB68BB60BB68002B05
:1009400003D0BB681800FFF767FD3B691800BD4680
:1009500007B090BD9D000020A00000209C0000205A
:100960000000002080B584B000AF0200FB1D1A70AB
:10097000FB1D1A78144B11001800FFF70BFE030043
:10098000FB60FB68002B1AD1104B1800FFF750FEDC
:1009900003001A0001235340DBB2002B0FD00C4A96
:1009A000094B11001800FFF713FE031E07D1084979
:1009B000064B01221800FFF723FE0300FB60FB68D3
:1009C0001800BD4604B080BDB0000020000000202B
:1009D0009800002080B586B000AFF860B9607A60FA
:1009E00000237B6109E0BB685A1CBA601B781800C1
:1009F000FFF7B8FF7B6901337B617A697B689A42B4
:100A0000F1DB7B681800BD4606B080BD80B584B0C0
:100A100000AFF860B9607A60C046BB681800FFF7A5
:100A20006BFF0300052BF8D001231800BD4604B06E
:100A300080BD000080B500AF72B6044B1B685A1C25
:100A4000024B1A60C046BD4680BDC046C0000020B3
:100A500080B500AF064B1B685A1E054B1A60044B4D
:100A60001B68002B00D162B6C046BD4680BDC046A3
:100A7000C000002080B582B000AF7860FFF7DAFFD9
:100A8000C046BD4602B080BD80B582B000AF020056
:100A9000FB1D1A70FFF7DCFFC046BD4602B080BDEB
:100AA00080B588B000AF786039603B68FB617B68D7
:100AB0001A780C203B181A707B685A683B185A60E9
:100AC0007B689B68DAB23B181A727B68DA683B185D
:100AD000DA60074BFA699200D358064AF96989002F
:100AE00089583A1810009847C046BD4608B080BDE6
:100AF000C4000020C8000020B0B58EB000AFF86080
:100B0000B9607A60FB681B787B63164B7A6B920046
:100B10007968D150BB681969134B7A6B9200D15038
:100B200010217B18BA6831CA31C331CA31C311CA26
:100B300011C37A6B7B181A6100233B63FB68181D95
:100B40007B68002B01D0094B00E000231022B9186C
:100B50001A0000F045FB03003B633B6B1800BD46E9
:100B60000EB0B0BDC4000020C8000020A10A0000E3
:100B700080B582B000AF786000231800BD4602B097
:100B800080BD90B587B000AF786039607B68180091
:100B9000FFF7EEFF03003B613B69002B20D01724D9
:100BA0003B1900221A700020FFF764FF3B691B7994
:100BB000002B03D03B1901221A7005E03B693A680B
:100BC0001A603B6901221A710020FFF75DFF1723AD
:100BD000FB181B78002B03D01123FB60FB6802E09D
:100BE0000023FB60FB681800BD4607B090BD000005
:100BF00080B582B000AF0200FB1D1A70FB1D1B7890
:100C00001A001F231A40044B012191400A001A6068
:100C1000C046BD4602B080BD00E100E080B582B0B4
:100C200000AF0200FB1D1A70FB1D1B781A001F236A
:100C30001340054901229A40C0235B00CA50C046B8
:100C4000BD4602B080BDC04600E100E090B583B073
:100C500000AF02003960FB1D1A70FB1D1B787F2B53
:100C600032D92F4AFB1D1B7819000F230B40083B7C
:100C70009B0806339B00D31804331B68FA1D1278B7
:100C8000110003220A40D200FF2191400A00D24302
:100C90001A4011003B689B01FF221A40FB1D1B7884
:100CA000180003230340DB009A401D48FB1D1B78FE
:100CB0001C000F232340083B9B080A4306339B007C
:100CC000C31804331A6027E0164AFB1D1B785BB279
:100CD0009B08C0339B009B58FA1D12781100032219
:100CE0000A40D200FF2191400A00D2431A4011006D
:100CF0003B689B01FF221A40FB1D1B781800032351
:100D00000340DB009A400748FB1D1B785BB29B0841
:100D10000A43C0339B001A50C046BD4603B090BD85
:100D200000ED00E000E100E080B584B000AF786045
:100D30007B681A0B0F217B181A707B181B785BB22B
:100D40001800BD4604B080BD80B582B000AF02007F
:100D5000FB1D1A70BB1D0A1C1A70BB1D1A78FB1DE7
:100D60001B785BB211001800FFF770FFC046BD464C
:100D700002B080BD80B582B000AF0200FB1D1A70CA
:100D8000FB1D1B785BB21800FFF748FFFB1D1B78AB
:100D90005BB21800FFF72CFFC046BD4602B080BD15
:100DA00080B582B000AF78600A00BB1C1A80BB1C03
:100DB0001B887A68D31800221A60C046BD4602B06C
:100DC00080BD80B582B000AF78600A00BB1C1A807D
:100DD000BB1C1B887A68D3181B685A1E9341DBB270
:100DE0001800BD4602B080BD80B582B000AF78600B
:100DF00039607A68C1239B003968D150C046BD462E
:100E000002B080BD80B582B000AF786039607A688A
:100E1000C1239B00D3583A6813405A1E9341DBB25A
:100E20001800BD4602B080BD80B582B000AF7860CA
:100E300039607A68C2239B003968D150C046BD46EC
:100E400002B080BD80B584B000AF78607A6890232E
:100E5000DB00D358FB607A689023DB00F968D1503F
:100E6000FB681800BD4604B080BD80B582B000AFFD
:100E700078607A68A023DB000421D150C046BD46CB
:100E800002B080BD80B584B000AFF860B9607A6010
:100E9000FB6805497A685A50FB680449BA685A5099
:100EA000C046BD4604B080BD140500000C0500001E
:100EB00080B584B000AFF860B9607A60FA68A123A9
:100EC000DB00B968D150FA68A223DB007968D15001
:100ED000C046BD4604B080BD80B582B000AF78602A
:100EE0007A68A323DB00D358DBB21800BD4602B0FA
:100EF00080BD000080B582B000AF78600A00FB1CA6
:100F00001A70FB1C1A787B6802495A50C046BD46CD
:100F100002B080BD1C05000080B582B000AF7860D3
:100F20000A00FB1C1A70FB1C1B787A68D31801227C
:100F30001A60C046BD4602B080BD000080B582B0D8
:100F400000AF786008001100FB1C021C1A70BB1C6B
:100F50000A1C1A70FA1CBB1C12781B781343DBB2F4
:100F600019007B68024A9950C046BD4602B080BD58
:100F70006C05000080B582B000AF786039607B6896
:100F800003493A685A50C046BD4602B080BDC046CB
:100F90002405000080B582B000AF7860A023DB0597
:100FA0001800BD4602B080BD90B585B000AF786036
:100FB0000C0010001900FB1C221C1A70BB1C021C28
:100FC0001A707B1C0A1C1A703B1D1800FFF7E2FF09
:100FD0000300FB60FB1C1A78BB1C1B785B001A43E8
:100FE0007B1C1B789B001A432023FB181B781B02D9
:100FF0001A4311002423FB181B781B047A68194339
:10100000FB68C132FF329200D150C046BD4605B0E8
:1010100090BD80B584B002AF7860786800230193FA
:1010200000230093002301220121FFF7BDFFC046EA
:10103000BD4602B080BD80B584B002AF78600A00C2
:10104000FB1C1A70FB1C1A7878680023019300239C
:101050000093130000220021FFF7A6FFC046BD4603
:1010600002B080BD80B584B000AF78603B1D180031
:10107000FFF790FF0300FB607B6801229A40FB684A
:101080001100180000F004F8C046BD4604B080BD51
:1010900080B582B000AF786039607A68A123DB0048
:1010A0003968D150C046BD4602B080BD80B582B01F
:1010B00000AF786039603B681B68013309D03B683A
:1010C0001B681800FFF7CEFF3B681B681800FFF78E
:1010D000A0FF3B685B68013305D03B685B6800217B
:1010E0001800FFF7A8FF7B681A683B689B69190026
:1010F0001000FFF73FFF7B6818683B68597D3B682D
:101100001B7D1A00FFF71AFF7B6818683B68196897
:101110003B685B681A00FFF7B5FE3B681B7D012B3F
:1011200020D13B689B68013305D03B689B68002158
:101130001800FFF780FF3B68DB68013309D03B688C
:10114000DB681800FFF78EFF3B68DB681800FFF7CD
:1011500060FF7B6818683B68D9683B689B681A0029
:10116000FFF7A6FEC046BD4602B080BD80B582B086
:1011700000AF78600A00FB1C1A707B681A688E2327
:101180005B0019001000FFF70BFE7B681A68A223B2
:101190005B0019001000FFF703FE7B681B680F4A15
:1011A00011001800FFF720FE7B681B681800FFF78E
:1011B000BBFD03001A00FB1C1B7819001000FFF791
:1011C000C3FD7B681B681800FFF7AEFD0300180025
:1011D000FFF7D0FDC046BD4602B080BD80000200D2
:1011E00080B586B000AFF860B9607A60FB681B79A3
:1011F0001A002C235A43294BD3187B6100233B61EF
:101200007B692A229B5C002B03D008233B613B694E
:101210003FE0FB681868FB681B791A00204B9200BE
:10122000D3581900FFF7ADFC031E03D011233B6117
:101230003B692EE0BA68FB6811001800FFF736FF23
:101240007B697A685A60BB681A697B691A607B6936
:101250005B68002B06D0BB681A7FFB681100180082
:10126000FFF784FFFB681B681800FFF7FEFD7B6932
:1012700000229A617B690022DA617B6929220021C0
:1012800099547B6900225A617B692A220121995471
:101290003B691800BD4606B080BDC046CC000020AA
:1012A0007830000080B584B000AF786039608E235C
:1012B0005A007B6811001800FFF772FD3B689A68BE
:1012C0003B681B6AD2180F217B1812781A703B6892
:1012D0001B6A5A1C3B681A627B181A787B681100DB
:1012E0001800FFF707FEC046BD4604B080BD80B5BC
:1012F00082B000AF786039601BE03B6828229B5CBD
:10130000DBB2002B01D000231AE08E235A007B6849
:1013100011001800FFF755FD03001A000123534088
:10132000DBB2002BE9D13A687B6811001800FFF7A7
:10133000B9FF3B681A6A3B685B699A42E5D30123AF
:101340001800BD4602B080BD80B586B000AFF86021
:10135000B9607A60FB681B791A002C235A43324B20
:10136000D3183B61FB68180000F060F8031E03D03F
:1013700011237B617B6952E03B697A685A613B6962
:10138000BA689A603B6900221A623B6928220021F0
:10139000995400237B61FB681A688E235B00190057
:1013A0001000FFF7FDFCFB681B6808211800FFF721
:1013B000B3FDFB681B683A6911001800FFF772FF64
:1013C0003B695B68002B29D1FB681B683A691100F7
:1013D0001800FFF78CFF03001A0001235340DBB213
:1013E000002B02D00F237B6115E0C046FB681A6812
:1013F0008E235B0019001000FFF7E3FC03001A00C6
:1014000001235340DBB2002BF0D1FB681B680C2199
:101410001800FFF781FD3B6900225A617B691800C3
:10142000BD4606B080BDC046CC00002080B582B06D
:1014300000AF78607B681B791900064A2C234B4368
:10144000D31814331B685A1E9341DBB21800BD46F3
:1014500002B080BDCC00002080B582B000AF7860C3
:101460007B681A6892235B0019001000FFF798FC54
:101470007B681A6884235B0019001000FFF790FC5A
:101480007B681B6800211800FFF746FDC046BD467B
:1014900002B080BD90B583B000AF786039603B6822
:1014A0009B69002B0BD184235A007B681100180024
:1014B000FFF776FC7B681800FFF70EFD16E084232B
:1014C0005A007B6811001800FFF76AFC3B68DA6875
:1014D0003B685B6AD4187B681800FFF7FDFC0300CB
:1014E00023703B685B6A5A1C3B685A62BD4603B076
:1014F00090BD0000F0B589B000AFF860B9607A60C7
:10150000FB681B791A002C235A43794BD318BB6113
:101510001F23FB1800221A70BB695B68002B07D0E1
:10152000FB681A6881239B0019001000FFF77CFC00
:10153000BB699B69002B17D0BB69DB69002B0FD0FF
:10154000BB695B68002B07D0FB681A6881239B008E
:1015500019001000FFF748FC11237B617B69C3E091
:101560001F23FB1801221A701F23FB181B7801226E
:101570005340DBB2002B0CD0BB697A689A61BB691F
:10158000BA68DA60BB6900225A62BB690022DA617C
:1015900005E0BB69BA681A61BB697A68DA61BB6940
:1015A00029229B5C01225340DBB2002B0BD01F236E
:1015B000FB181B7801225340DBB2002B03D0FB68E1
:1015C0001800FFF749FFBB695B68002B00D080E083
:1015D000FB681A68A2235B0019001000FFF7E0FB0C
:1015E000FB681A681323FC1892235B001900100093
:1015F000FFF7E7FB03002370FB681A6812257C19CC
:1016000084235B0019001000FFF7DBFB030023704D
:10161000FB681A681126BC19A2235B001900100090
:10162000FFF7CFFB030023707B191B780122534087
:10163000DBB2002B0ED0BB191B7801225340DBB26A
:10164000002B07D01323FB181B7801225340DBB279
:10165000002BC5D11323FB181B78002B11D11123AC
:10166000FB181B78002B0CD1FB681B68BA691100B2
:101670001800FFF70FFFBB699A69BB695B6A9A4262
:10168000AED8BB6900229A611323FB181B78002B8C
:1016900003D003237B617B6926E01123FB181B78B1
:1016A000002B03D00F237B617B691DE0BB692922DE
:1016B0009B5C002B06D0FB681B6800211800FFF71D
:1016C0002BFC0EE0FB681B6804211800FFF724FCCC
:1016D00007E0FB681A6881239B0019001000FFF7E0
:1016E00083FB00237B617B691800BD4609B0F0BD18
:1016F000CC00002080B588B000AFF860B9607A6097
:1017000010203B1801221A703B18BA689A603B18E7
:101710007A685A60FB685A68FB6819683B181800B9
:101720009047C046BD4608B080BD80B586B000AFCA
:101730007860396008203B1800221A703B183A681C
:101740009A607B689A683B185A607B6800225A61ED
:101750007B685A687B6819683B1818009047C04638
:10176000BD4606B080BD90B589B000AF78603960E5
:1017700080239A007B6811001800FFF743FB031ECB
:1017800045D092235A007B6811001800FFF719FB1F
:10179000031E3CD092235A007B6811001800FFF70B
:1017A000FFFA81239A007B6811001800FFF73CFBC9
:1017B0003B6829229B5C01225340DBB2002B04D002
:1017C0007B6804211800FFF7A7FB08243B190222BD
:1017D0001A707B681800FFF735FB020020003B18E9
:1017E000DA603B689A693B189A603B68DA683B1894
:1017F0005A603B6800229A613B680022DA613B68CC
:101800005A683B6819683B181800904759E07B6894
:1018100004211800FFF7F6FA031E52D084235A0061
:101820007B6811001800FFF7CCFA031E49D03A6814
:101830007B6811001800FFF72DFE3B689A693B6832
:101840005B6A9A423DD13B68DB69002B1AD03B684A
:10185000DB68FB613B685B6ABB613B68DA693B68DC
:101860009A613B681A693B68DA603B680022DA617A
:101870003B6800225A62FA69B9693B681800FFF7B1
:1018800039FF1EE03B6829229B5C01225340DBB2FA
:10189000002B04D07B6804211800FFF73DFB812357
:1018A0009A007B6811001800FFF7BEFA3B6800221F
:1018B0009A613B68596A3B68DA683B681800FFF731
:1018C00019FF8E235A007B6811001800FFF779FA80
:1018D000031E27D03B681A6A3B685B699A420FD2A5
:1018E0003B6828229B5CDBB201225340DBB2002B19
:1018F00006D03A687B6811001800FFF7D3FC11E0AE
:101900008E235A007B6811001800FFF749FA3B68E4
:101910005B69002B06D03B685A693B6811001800D0
:10192000FFF703FFA2235A007B6811001800FFF79E
:1019300048FA031E1FD0A2235A007B68110018002A
:10194000FFF72EFA3B6829229B5C002B04D07B68B2
:1019500000211800FFF7E0FA3B689B69002B0AD0D2
:101960003B6800229A613B68596A3B68DA683B68C9
:101970001800FFF7BFFEC046BD4609B090BD00008D
:1019800080B500AF044B054A19001000FFF7EBFECD
:10199000C046BD4680BDC046CC00002000200040AF
:1019A00080B582B000AF0200FB1D1A70FB1D1B78D2
:1019B0001A001F231A40044B012191400A001A60AB
:1019C000C046BD4602B080BD00E100E080B582B0F7
:1019D00000AF0200FB1D1A70FB1D1B781A001F23AD
:1019E0001340054901229A40C0235B00CA50C046FB
:1019F000BD4602B080BDC04600E100E090B583B0B6
:101A000000AF02003960FB1D1A70FB1D1B787F2B95
:101A100032D92F4AFB1D1B7819000F230B40083BBE
:101A20009B0806339B00D31804331B68FA1D1278F9
:101A3000110003220A40D200FF2191400A00D24344
:101A40001A4011003B689B01FF221A40FB1D1B78C6
:101A5000180003230340DB009A401D48FB1D1B7840
:101A60001C000F232340083B9B080A4306339B00BE
:101A7000C31804331A6027E0164AFB1D1B785BB2BB
:101A80009B08C0339B009B58FA1D1278110003225B
:101A90000A40D200FF2191400A00D2431A401100AF
:101AA0003B689B01FF221A40FB1D1B781800032393
:101AB0000340DB009A400748FB1D1B785BB29B0884
:101AC0000A43C0339B001A50C046BD4603B090BDC8
:101AD00000ED00E000E100E080B582B000AF020060
:101AE000FB1D1A708023DA0580235B000021D15092
:101AF0008023DB0501221A60C0468023DA0580239B
:101B00005B00D358002BF8D0364AA123DB00072115
:101B1000D150344AA223DB000021D150314A324B4C
:101B20003249D1502F49FB1D1B78314A8B502D4A29
:101B3000304B0021D1502B4AA623DB000121D1508C
:101B4000284A2D4B0821D150264AA323DB002B49DC
:101B5000D150244A2A4B0221D150224A294B2A49EA
:101B6000D150204AA723DB002849D1501D4A284BD9
:101B70001821D1501B49274B274A8B50194AC123A2
:101B80009B000821D15001210120FFF737FF0120E0
:101B9000FFF71CFF0120FFF703FF124A80239B0081
:101BA000D358104910221A4380239B00CA500D4A73
:101BB00080235B000021D1500A4B01225A60C046AD
:101BC000084A80235B00D358002BF9D0054A8623AE
:101BD0005B000021D150034B01229A60C046BD46F4
:101BE00002B080BD001000401C05000074696275E1
:101BF000240500002C05000014050000200004024C
:101C0000340500003C050000FFFF0000211001002A
:101C100054050000F80000200405000080B582B0E3
:101C200000AF1C4A8023DB00D358002B2AD0194A6E
:101C300086235B000021D15000237B600EE0164A12
:101C40007B68D31801331B78DBB21A00134B1100E9
:101C5000180000F0ABF97B6801337B600E4B1B78FA
:101C6000DBB21A007B689342E9DB0A4AA923DB0056
:101C7000D2580A4B1100180000F098F9084B1800D0
:101C800000F094F9034B01229A60C046BD4602B0B1
:101C900080BDC04600100040F80000207C300000ED
:101CA0008430000090B585B000AF78607B681B7809
:101CB000022B05D17B685B681800FEF7ADFB1BE0CB
:101CC0007B681B78012B05D17B685B681800FEF7E9
:101CD000A3FB11E07B681B78002B0DD1C0460F24BD
:101CE0003B191800FEF708FE031EF8D13B191B78BC
:101CF000034A1900034BD150C046BD4605B090BD04
:101D00000010004024050000B0B58CB000AF0120E9
:101D1000FEF774FBFEF742FB0020FFF7DDFE10200C
:101D20003B18134A32CA32C332CA32C33B00114A8B
:101D30001A603B00802252005A603B000E4A9A60B3
:101D40003B0080225200DA600C4A39003818032325
:101D5000FEF736FD0300FB62FB6ABB62BB6A002B29
:101D600003D0BB6A1800FEF757FB20BFFDE7C04653
:101D7000883000001C0100201C020020A51C00006F
:101D800080B500AF00F036F8031E06D0134B144A9E
:101D90001A60144B802212021A6000F06BF8031EC6
:101DA00005D08023DA05C123DB000121D15000F0EA
:101DB00087F8031E0ED00C4B1B68012B07D00A4B73
:101DC0000A4A1A60C046084B1B68012BFBD1084B1E
:101DD000C0221A60C046BD4680BDC0460405004012
:101DE000DFFF07C0186C004000EC06407593000050
:101DF00014EC064080B500AF1A4B1B68FF2213405D
:101E0000012B2AD1184B1B680F22134025D1174BE9
:101E10001B68F022134006D1154B1B68F0221340BB
:101E200001D101231AE0114B1B68F0221340102B43
:101E300006D10F4B1B68F022134001D101230DE0A6
:101E40000A4B1B68F0221340302B06D1084B1B684D
:101E5000F022134001D1012300E000231800BD4609
:101E600080BDC046E00F00F0E40F00F0E80F00F086
:101E7000EC0F00F080B500AF0D4B1B68FF22134044
:101E8000012B11D10B4B1B680F2213400CD10A4BB5
:101E90001B68F0221340402B06D1084B1B68F02230
:101EA000134001D1012300E000231800BD4680BD8E
:101EB000E00F00F0E40F00F0E80F00F0EC0F00F08E
:101EC00080B500AF144B1B68FF221340012B1ED1BD
:101ED000124B1B680F22134019D1114B1B68F022C3
:101EE0001340A02B06D10F4B1B68F022134001D1E9
:101EF00001230DE00A4B1B68F0221340D02B06D1C2
:101F0000084B1B68F022134001D1012300E000239D
:101F10001800BD4680BDC046E00F00F0E40F00F0A1
:101F2000E80F00F0EC0F00F0084B10B50400002B98
:101F300002D0002100E000BF054B1868836A002B27
:101F400000D09847200000F0EBFFC04600000000E2
:101F5000A030000070B500260C4D0D4C641BA41081
:101F6000A64209D1002601F069F80A4D0A4C641B0B
:101F7000A410A64205D170BDB300EB5898470136B6
:101F8000EEE7B300EB5898470136F2E77000002007
:101F90007000002070000020740000200300121860
:101FA000934200D1704719700133F9E70FB40B4B1E
:101FB00013B51C68002C05D0A369002B02D12000AA
:101FC00000F070F805AB049AA1682000019300F0BE
:101FD00093F916BC08BC04B01847C0460C0000209A
:101FE000002310B504000360436083608181436671
:101FF000C281036143618361190008225C30FFF7ED
:10200000CDFF054B24626362044BA362044BE36281
:10201000044B236310BDC04679280000A1280000AE
:10202000D92800000529000010B5024900F0BAF8CF
:1020300010BDC046092C000070B568254A1E5543E6
:102040000E002900743100F0D1F8041E08D00021E0
:102050002A00016046600C30A0606832FFF79EFFE6
:10206000200070BD10B5024800F0BEF810BDC0469B
:102070003003002010B5024800F0B7F810BDC0468C
:102080003003002010B5024800F0AEF810BDC04685
:102090002B03002010B5024800F0A7F810BDC04681
:1020A0002B03002013B50400FFF7ECFFA369002BFE
:1020B00002D0FFF7EFFF13BDA364E3642365134B66
:1020C000134A1B68A2620193A34201D10123A361B9
:1020D000200000F01FF86060200000F01BF8A060F6
:1020E000200000F017F80022E06004216068FFF78C
:1020F00077FF01220921A068FFF772FF0222122157
:10210000E068FFF76DFF0123A361D2E7A030000074
:1021100029200000F8B50700FFF7A4FF1F4B1E6839
:10212000B369002B02D13000FFF7BCFF4836B4681A
:102130007368013B04D53368002B22D03668F6E77C
:102140000C22A55E002D1AD12000154B5830E360FB
:10215000656600F048F8FFF78DFF20002560A56058
:10216000656025616561A561082229005C30FFF783
:1021700015FF6563A563A564E5642000F8BD6834B8
:10218000D7E704213800FFF757FF041E3060D5D190
:10219000FFF770FF0C233B60EFE7C046A030000064
:1021A0000100FFFFF7B50400070000260191483445
:1021B000002C01D13000FEBD6368A5680093009B30
:1021C000013B009301D52468F2E7AB89012B08D9C4
:1021D0000E22AB5E013304D029003800019B9847E2
:1021E00006436835EBE7704770477047F8B503233F
:1021F000CD1C9D43083506000C2D1FD20C25A9428D
:102200001ED8300000F0CCFD25490A681400002CCF
:102210001AD1244F3B68002B04D12100300000F07C
:1022200019FB38602900300000F014FB431C2AD150
:102230000C233000336000F0BBFD03E0002DDEDA3C
:102240000C2333600020F8BD23685B1B18D40B2BD4
:1022500003D92360E418256003E06368A2420DD12E
:102260000B60300000F0A4FD200007220B30231D7E
:102270009043C21AE7D01B1AA350E4E75360F0E77B
:1022800022006468C3E70323C41C9C43A042E2D03D
:10229000211A300000F0DEFA431CDCD1C8E7C0464A
:1022A0001C03002020030020936810B5013B9360BD
:1022B000002B04DA9469A34207DB0A2905D01368CE
:1022C000581C10601970080010BD00F021FB0100BF
:1022D000F9E7F8B506000F001400D518AC4201D19B
:1022E000002007E021783A003000FFF7DDFF0134DD
:1022F000431CF3D1F8BD0000F0B5A1B007000D00FC
:1023000003921E00002804D08369002B01D1FFF73F
:10231000C9FE8C4B9D421CD17D686B6EDB0705D4DA
:10232000AB899B0502D4A86DFFF75EFFAB891B0745
:1023300002D52B69002B1DD12900380000F052FB7B
:10234000002817D06B6EDB070DD50120404221B06D
:10235000F0BD7D4B9D4201D1BD68DEE77B4B9D42C8
:10236000DBD1FD68D9E7AB899B05EED4A86DFFF7FB
:102370003CFFEAE7002308AC636120336376103347
:10238000A3760796039E3378002B01D0252B4BD1E3
:10239000039BF31A05930CD0039A29003800FFF72A
:1023A00098FF431C00D1B5E06269059B94466344E5
:1023B00063613378002B00D1ACE00122731C0393DE
:1023C00000235242626004A9543252182360E36031
:1023D000A3601370A365039B052219785C4800F085
:1023E000D3FC039B5E1C002820D12268D30604D5B1
:1023F000532304A95B1820211970130704D5532314
:1024000004A95B182B211970039B1B782A2B16D06B
:102410000021E368039E3278701C303A8446092A12
:102420004FD9002911D117E00136ACE7484B22689B
:10243000C01A01238340134323600396CBE7079B15
:10244000191D1B680791002B01DB0B9304E05B4215
:10245000E36002231343236033782E2B0AD1737871
:102460002A2B37D1079B02361A1D1B680792002BB7
:102470002DDB099331780322364800F085FC0028D3
:1024800007D0344B2268C01A4023834013430136DF
:1024900023603178731C06222F480393217600F0C5
:1024A00073FC002845D02D4B002B27D10722079B1A
:1024B00007339343083307936369049A9B18636156
:1024C00060E70A214B4366469B180939A3E70123BD
:1024D0005B42CEE700231A00013663603178701C3E
:1024E00030398446092903D9002BC3D00992C1E7AA
:1024F0000A235A4366465218093BEFE707AB00939D
:102500002A00174B2100380000E000BF0490049B14
:102510000133D1D16B6EDB0705D4AB899B0502D4A7
:10252000A86DFFF762FEAB895B0600D50DE70D983D
:102530000DE707AB00932A00094B2100380000F09B
:102540007FF8E3E7C4300000E4300000A43000006E
:10255000043100000A3100000E31000000000000CC
:10256000D3220000F7B5150001938A680B6900902B
:102570000C00934200DA130022002B6043321278E1
:10258000002A01D001332B6023689B0602D52B68FB
:1025900002332B60062723681F4027D023004333D4
:1025A0001B785A1E93412268920630D4220001996A
:1025B00043320098089EB047431C25D0062320686C
:1025C0002A68E16803400025042B03D18D1AEB43F0
:1025D000DB171D40A3682269934201DD9B1AED18A9
:1025E0000027BD4220D1002010E00137E3682A68AF
:1025F0009B1ABB42D2DD22000123193201990098B7
:10260000089EB047431CF0D101204042FEBD30205F
:10261000E1184331087021005A1C45310978A2188D
:10262000433202331170C1E7220001231A320199AB
:102630000098089EB047431CE6D00137D1E7000060
:10264000F0B58BB006920A004332079305900492CE
:102650000A7E0C00109B6E2A00D1AFE020D8632ABE
:1026600035D008D8002A00D1B5E0582A51D026002C
:102670004236327032E0642A01D0692AF7D11968F3
:1026800020680A1D05062BD50D681A60002D03DA97
:102690002D23049A6D4213706C4B0A27039352E06A
:1026A000732A00D19BE008D86F2A1FD0702ADED190
:1026B000202209680A43226003E0752A16D0782A8E
:1026C000D5D12200782145321170614A24E02600DC
:1026D0001A684236111D19601368337001238CE0AB
:1026E0000D681A604106D1D52DB2CFE7196825686B
:1026F000081D18602E0601D50D6803E06D06FBD598
:102700000D68ADB2514B0A2703936F2A17D10827E2
:1027100015E045310A704D4A03921A68216820CAB3
:102720001A60080644D5CB0702D52023194321603F
:102730001027002D03D1202322689A432260230012
:10274000002243331A706368A360002B03DB04226A
:10275000216891432160002D02D1049E002B0AD0F4
:10276000049E3900280000F063FC039B013E5B5C83
:102770003370AF4220D9082F09D12368DB0706D573
:1027800063682269934202DC3023013E3370049B6C
:102790009B1B2361079B09AA00932100069B0598B8
:1027A000FFF7E0FE431C2DD1012040420BB0F0BDED
:1027B0004806B8D5ADB2B6E70500D2E71A680D688D
:1027C000101D4969186013682E0601D5196002E0D2
:1027D0006D06FBD519800023049E2361DAE71A6891
:1027E000111D1960166800216268300000F0CCFAF3
:1027F000002801D0801B6060636823610023049A75
:102800001370C7E72369320006990598079DA8470A
:10281000431CC9D023689B0715D4099BE0689842E4
:10282000C4DA1800C2E7220001231932069905987C
:10283000079EB047431CB7D00135E368099A9B1A3D
:10284000AB42F0DCE9E70025F7E7C04615310000B0
:1028500026310000002370B5064C050008002360F7
:1028600000F050FB431C03D12368002B00D02B60E9
:1028700070BDC0463403002070B50C000E25495FC2
:1028800000F0E8FA002803DB636D1B18636570BD78
:10289000A389024A1340A381F9E7C046FFEFFFFF77
:1028A000F8B51F008B8905000C001600DB0505D567
:1028B0000E23C95E0022022300F0E6F9A389054A2F
:1028C00028001340A38132000E23E15E3B0000F09C
:1028D00075F8F8BDFFEFFFFF70B50C000E25495FDE
:1028E00000F0D2F9A389421C03D1054A1340A38109
:1028F00070BD802252011343A3816065F8E7C04692
:10290000FFEFFFFF10B50E23C95E00F0E1F810BD28
:10291000F8B505000E001400002804D08369002BD0
:1029200001D1FFF7BFFB224B9C422ED16C68A369FB
:10293000A360A3891B0732D52369002B2FD02368FE
:102940002269F7B2981A6369F6B2834205DC210066
:10295000280000F059F9002827D1A3680130013B75
:10296000A36023685A1C22601F706369834204D0ED
:10297000A389DB0707D50A2E05D12100280000F026
:1029800043F9002811D13000F8BD0A4B9C4201D117
:10299000AC68CCE7084B9C42C9D1EC68C7E7210082
:1029A000280000F01FF80028C9D001267642EAE787
:1029B000C4300000E4300000A430000070B5050011
:1029C000080011000022064C22601A00FEF702F8EF
:1029D000431C03D12368002B00D02B6070BDC04680
:1029E00034030020364B70B51D6806000C00002D26
:1029F00005D0AB69002B02D12800FFF753FB314B08
:102A00009C420FD16C680C23E25E93B219072DD45F
:102A1000D90611D409230120336037331343A3812E
:102A2000404270BD284B9C4201D1AC68EBE7274B7C
:102A30009C42E8D1EC68E6E75B0713D5616B00299F
:102A400008D023004433994202D0300000F0B8F996
:102A5000002363632422A3899343A381002363603B
:102A6000236923600823A2891343A3812369002BD0
:102A70000BD1A0218022A389890092000B409342B0
:102A800003D02100300000F03BF90123A28913405C
:102A900011D00023A36063695B42A3610020236916
:102AA0008342BED10C23E25E1306BAD54023134302
:102AB000A3810138B5E7920700D46369A360EDE70D
:102AC0000C000020C4300000E4300000A4300000FE
:102AD000002370B5064C05000800236000F0F2F9F1
:102AE000431C03D12368002B00D02B6070BDC0466F
:102AF00034030020F7B58A8905000C0013075DD464
:102B00004B68002B04DC0B6C002B01DC0020FEBDAD
:102B1000E76A002FFAD000232E682B6080235B0128
:102B20001A4034D0606DA3895B0706D56368C01A6C
:102B3000636B002B01D0236CC01A0200216A0023B2
:102B40002800E76AB847A189431C06D12B681D2BD2
:102B500031D82C4ADA40D3072DD50023636023698E
:102B60002360CB0405D5431C02D12B68002B00D178
:102B70006065616B2E600029C8D023004433994200
:102B800002D0280000F01CF900206063BFE7012399
:102B9000216A2800B847431CC5D12B68002BC2D03E
:102BA0001D2B01D0162B01D12E60AFE74023A28947
:102BB0001343A381ABE740230B43FAE70F69002FD0
:102BC000A4D00B680F60DB1B01930023920700D198
:102BD0004B69A360019B002B00DC97E7019B3A0047
:102BE000216A2800A66AB047002806DC402301209D
:102BF000A28940421343A38189E7019B3F181B1A16
:102C00000193E7E7010040200B6970B505000C0057
:102C1000002B02D10025280070BD002804D0836954
:102C2000002B01D1FFF73EFA144B9C421BD16C687C
:102C30000C22A35E002BEDD0626ED20704D49B055C
:102C400002D4A06DFFF7D0FA28002100FFF752FF51
:102C5000636E0500DB07DED4A3899B05DBD4A06D82
:102C6000FFF7C3FAD7E7064B9C4201D1AC68DFE718
:102C7000044B9C42DCD1EC68DAE7C046C43000006B
:102C8000E4300000A430000070B505000800110019
:102C90000022064C22601A0000F02CF9431C03D1DC
:102CA0002368002B00D02B6070BDC0463403002089
:102CB00070B50E001D000E23C95E96B014000029E9
:102CC00007DA00232B60B3891B0611D48023DB00B5
:102CD0000FE06A4600F0D2F80028F2DBF022019BF8
:102CE00012021340054A9B185A4253412B60EDE7EC
:102CF00040230020236016B070BDC04600E0FFFFF7
:102D0000F7B502268B8905000C00334206D023005C
:102D100047332360236101236361F7BD01AB6A463A
:102D2000FFF7C6FF009907002800FFF75FFA0028A9
:102D300008D10C22A35E9A05EFD4032293431E43CD
:102D4000A681E4E70F4BAB628023A2892060134386
:102D5000A381009B20616361019B002B0DD00E239A
:102D6000E15E280000F09CF8002806D00322A38929
:102D700093431A0001231343A381A0893843A08100
:102D8000CBE7C04629200000C9B28218904201D189
:102D90000020704703788B42FBD00130F6E700003B
:102DA00010B50248FFF720FA10BDC0462C030020E2
:102DB00010B50248FFF719FA10BDC0462C030020D9
:102DC00070B50500002910D00C1F2368002B00DA15
:102DD000E4182800FFF7E4FF1D4A1368002B05D113
:102DE000636014602800FFF7E3FF70BDA34209D9B8
:102DF000216860188342F3D118685B68411821602C
:102E0000EEE713005A68002A01D0A242F9D91968E6
:102E10005818A0420BD1206809185818196082422E
:102E2000E0D110685268411819605A60DAE7A04290
:102E300002D90C232B60D5E721686018824203D1A8
:102E4000106852684118216062605C60CAE7C04641
:102E50001C03002070B50500080011000022064C7C
:102E600022601A00FDF7D2FD431C03D12368002B1A
:102E700000D02B6070BDC04634030020002370B525
:102E8000064C050008001100236000F023F8431CE5
:102E900003D12368002B00D02B6070BD34030020C9
:102EA000002370B5064C05000800236000F01AF8F6
:102EB000431C03D12368002B00D02B6070BDC0469B
:102EC0003403002058220120014B40421A60704711
:102ED0003403002058220120014B40421A60704701
:102EE000340300205822024B00201A607047C0466D
:102EF0003403002058220120014B40421A607047E1
:102F000034030020044A1368002B03D01818106003
:102F100018007047014BF9E7240300203803002014
:102F2000FEE7C046002243088B4274D303098B425C
:102F30005FD3030A8B4244D3030B8B4228D3030C89
:102F40008B420DD3FF22090212BA030C8B4202D32B
:102F50001212090265D0030B8B4219D300E0090A53
:102F6000C30B8B4201D3CB03C01A5241830B8B425C
:102F700001D38B03C01A5241430B8B4201D34B0345
:102F8000C01A5241030B8B4201D30B03C01A5241AA
:102F9000C30A8B4201D3CB02C01A5241830A8B422F
:102FA00001D38B02C01A5241430A8B4201D34B0218
:102FB000C01A5241030A8B4201D30B02C01A52417C
:102FC000CDD2C3098B4201D3CB01C01A5241830930
:102FD0008B4201D38B01C01A524143098B4201D36A
:102FE0004B01C01A524103098B4201D30B01C01A95
:102FF0005241C3088B4201D3CB00C01A524183080F
:103000008B4201D38B00C01A524143088B4201D33B
:103010004B00C01A5241411A00D20146524110469B
:103020007047FFE701B5002000F006F802BDC0467A
:103030000029F7D076E770477047C046F8B5C0461C
:10304000F8BC08BC9E467047F8B5C046F8BC08BC42
:103050009E46704715161700FFFFFFFFFFFFFFFF9B
:10306000FFFFFFFFFFFFFFFF000000000000000068
:103070000000D601070000008119000025303258F9
:10308000000000000A0000000B0000000900000022
:10309000080000000A0000000000000000B0AF03BC
:1030A00010000020000000000000000000000000F0
:1030B0000000000000000000000000000000000010
:1030C0000000000000000000000000000000000000
:1030D00000000000000000000000000000000000F0
:1030E00000000000000000000000000000000000E0
:1030F00000000000000000000000000000000000D0
:1031000000000000232D302B2000686C4C00656609
:103110006745464700303132333435363738394128
:10312000424344454600303132333435363738393E
:0C3130006162636465660000000000003E
:08313C00CCCFFF7F0100000071
:1031440000000000002000400000000010000020EB
:1031540000000000C4300000E4300000A43000008F
:10316400000000000000000000000000000000005B
:10317400000000000000000000000000000000004B
:10318400000000000000000000000000000000003B
:10319400000000000000000000000000000000002B
:1031A400000000000000000000000000000000001B
:0831B400E9000000C100000069
:040000030000018177
:00000001FF
