:1010000000000420B5120000DD120000DF12000015
:10101000E1120000E3120000E512000000000000F1
:10102000000000000000000000000000E7120000C7
:10103000E912000000000000EB120000ED120000B9
:10104000DD6D000041140000EF120000EF120000FF
:10105000EF120000EF120000ED6D0000EF12000033
:10106000EF120000EF120000EF120000EF1200007C
:10107000EF120000EF120000EF120000EF1200006C
:10108000EF120000ED160000EF120000EF1200005A
:101090008D170000EF120000EF120000EF120000A9
:1010A000EF120000EF120000EF120000EF1200003C
:1010B000EF120000EF12000000000000000000002E
:1010C000EF120000EF120000EF120000EF1200001C
:1010D000EF120000EF120000EF120000F95E0000B6
:1010E000EF120000EF120000EF12000000000000FD
:1010F00000000000EF12000000000000EF120000EE
:1011000000000000000000000000000000000000DF
:1011100000000000000000000000000000000000CF
:1011200000000000000000000000000000000000BF
:1011300000000000000000000000000000000000AF
:10114000000000000000000000000000000000009F
:10115000000000000000000000000000000000008F
:10116000000000000000000000000000000000007F
:10117000000000000000000000000000000000006F
:10118000000000000000000000000000000000005F
:10119000000000000000000000000000000000004F
:1011A000000000000000000000000000000000003F
:1011B000000000000000000000000000000000002F
:1011C000000000000000000000000000000000001F
:1011D000000000000000000000000000000000000F
:1011E00000000000000000000000000000000000FF
:1011F00000000000000000000000000000000000EF
:1012000010B5054C237833B9044B13B10448AFF340
:1012100000800123237010BD80000020000000002A
:10122000F87F000008B5034B1BB103490348AFF337
:10123000008008BD0000000084000020F87F00004E
:10124000154B002B08BF134B9D46A3F5803A002198
:101250008B460F461348144A121A06F0D9F80F4B62
:10126000002B00D098470E4B002B00D09847002051
:10127000002104000D000D48002802D00C48AFF3F7
:10128000008006F093F82000290000F01BF906F01A
:1012900079F800BF000008000000042000000000F2
:1012A000000000008000002068080020000000000E
:1012B000000000000649074A074B9B1A03DD043B68
:1012C000C858D050FBDC00F0BDFCFFF7B9FF0000B0
:1012D000048000000800002080000020FEE7FEE7F8
:1012E000FEE7FEE7FEE7FEE7FEE7FEE7FEE7FEE7D6
:1012F00031B102291FD101220F49104802F0CEBDA1
:10130000F8B5044603200C4F0C4E00F031F93D4671
:10131000204602F0BFFD01222946304602F0BEFD04
:101320000028F5D0064B3A78C3F824250320BDE801
:10133000F84000F00BB9704720010020A47D0000A8
:1013400000100040083808B506280CD8DFE800F087
:101350000804120B0B0B0C00BDE8084000F088BF1E
:1013600004F0A2FA50B108BD00F042FFBDE8084009
:1013700000F010B9BDE8084000F03CBFBDE80840EF
:1013800000F034BF4FF0804300220121F0B4C3F8D5
:1013900000211A461960D2F80031002BFBD0224BF5
:1013A000224D234F234E244A00210724C3F8084529
:1013B000C3F810150124C3F81C550825C3F82405EB
:1013C000C3F82C150220C3F83045C3F81455C3F8F0
:1013D00018754FF6FF77C3F83405C3F83C75C3F8AA
:1013E00038651826C3F85465144EC3F804652026E2
:1013F000C3F8045382F80163C2F880011060D3F887
:10140000002242F01002C3F80022C3F800111A466D
:101410005C60D2F80031002BFBD000210123C2F820
:101420000C119360F0BC7047001000407469627545
:10143000240004022110010000E100E0A4010020CA
:101440002DE9F041002000F093F8184B184EDFF81A
:101450006C800024C3F80C4133786BB1154F4546BE
:10146000331928465A78394606F00EF83378013495
:10147000A34205F10205F3DC0C4C3078D4F8482582
:101480000D4992B208EB400005F0FEFF32780B499F
:101490000B48032303EB420202F0DCFC002000F0C7
:1014A00055F80123A360BDE8F08100BF00100040A3
:1014B000A4010020947D00009C7D000024010020F8
:1014C000A47D000008B5012000F07CF8032000F0A6
:1014D0003DF8002000F03AF805F0C0F918BB0020F4
:1014E00005F0D6F905F002FA0028FBD000F044FB25
:1014F00028BB03F03BF9134800F0D0FDE0B91248D7
:1015000000F0E8FEA8B900F059FE78B90020FFF716
:1015100039FF01F093FB0028FBD120BF01F08EFBC7
:101520000028F6D1F9E700F0B7F8D8E700F0B4F8F2
:10153000ECE700F0B1F8E6E700F0AEF8DFE700F026
:10154000ABF8D6E7C47D0000A47D0000064B1A5C12
:101550001F2A86BF02F01F0204494FF0A041012359
:101560009340C1F80C357047D07D00000003005057
:10157000064B1A5C1F2A86BF02F01F0204494FF077
:10158000A04101239340C1F808357047D07D000089
:101590000003005030B44FF0A043094940254FF4F8
:1015A00080744FF400704FF48052C3F80855C3F8AC
:1015B0000845C1F80805C3F8082530BC704700BFCE
:1015C00000030050C30706D4830742BF2E4B0C22F2
:1015D000C3F81827704770B44FF08043D3F84036F3
:1015E000DA0722D44FF0A0432749032240264FF4C4
:1015F00080754FF40074C3F81827C3F82027C1F88A
:101600002427C3F83027C3F808654FF48052C3F885
:101610000855C1F808458107C3F8082503D51A4BBA
:101620000C22C3F8182770BC70474FF01023D3F872
:10163000043303F00703072BD4D1144B0122C3F862
:101640000425D3F80024002AFBD04FF010210020FD
:10165000D1F804230D4C22F0070242F00402C1F835
:101660000423C3F80405D4F80034002BFBD0BFF3E7
:101670004F8F0749074BCA6802F4E0621343CB60FF
:10168000BFF34F8F00BFFDE70003005000E00140B3
:1016900000ED00E00400FA0500B585B000230390DA
:1016A000194601AA44F20100CDE9013300F004F823
:1016B00005B05DF804FB00BF72B6094B1B68DB0781
:1016C00000D500BEBFF34F8F0649074BCA6802F42E
:1016D000E0621343CB60BFF34F8F00BFFDE700BF55
:1016E000F0ED00E000ED00E00400FA05F8B5204957
:1016F000204B0024C1F84041C1F84441C1F84841A1
:10170000C1F84C41C1F80041C1F804411B6833B332
:101710001948D1F8045501681A686D1A25F07F45FB
:10172000AA4227460DD8197CDE69AD1A144419B1B6
:101730001F74D3E9052090471EB133461A68AA42A8
:10174000F1D90E490E4A0B7812789A4208D00D4909
:101750000D4A41F823404FF48013C2F80031F8BD20
:10176000531CDBB2022B08BF00230B70EFE700BF56
:1017700000100140EC020020E8020020E5020020F9
:10178000E4020020DC02002000E100E02DE9F04F3F
:10179000B34AB44913780978B34E994285B0356895
:1017A00000F08D810133DBB2022B08BF0023AF496B
:1017B0001370AF4AD1F800C052F823200CEB02039B
:1017C00023F07F430B60002D00F0C6812B689A4206
:1017D000C0F0C48100273846BE4603E00B68934240
:1017E00000F27081EC68C5F800E0D21A1844E9698B
:1017F0003CB10CEB000323F07F43C5E90134EF61FA
:101800002F460D460029E9D1316000254FF0010A2D
:10181000984B9949DFF8749243F0010301934FF01C
:101820000008002F33D0D7E901BE3C46FF698F4B3B
:1018300092481A68ABEB020323F07F43834200F225
:1018400004817344236000203268E061C4E9010030
:1018500001202074002A00F0F6801068984208D316
:10186000E2E0DEF800C0DC4580F0E38072465B46D3
:101870006046D2F81CE0A3EB000BBEF1000FF0D1E4
:10188000C4F800B0C4F81CE0D461002FCBD191F8AB
:1018900001E00878864519D084460CEB4C0C8B7817
:1018A00001EBCC0C421CD0B283429CF8043008708F
:1018B00004BF00200870022BDCF8084000F0838091
:1018C000032B75D0012B5AD07045E5D13668B8F19D
:1018D000000F01D1AE422CD086B3644A684B146825
:1018E000D3F80475DFF8A081366898F800203D1B16
:1018F00025F07F450335002A00F0EB80AE422CBF77
:10190000A41964195E4A24F07F44C2F84045D2F815
:101910000435DB1BE41B23F07F4324F07F440333B7
:10192000A34200F2EF80002389F8003005B0BDE843
:10193000F08FBAF1000FF6D0002ECED1504D514AA3
:101940004C4C4FF400314FF480330127C2F8801023
:101950003C43C5F848334FF43C60C5F808336F602A
:10196000A047424BAF604FF43C601E60A047464B1F
:101970001E70002389F8003005B0BDE8F08F237C8D
:10198000002BA1D1DCF80CB0C4F804B0DCF810E0F6
:10199000C4F808E0DCF81420E26099F80020DCF8D4
:1019A0001800A061002A3FF442AF63609B463EE707
:1019B0003368002B3FF46EAF00221A74DB69002BF2
:1019C000FBD1336063E7336853B19C4260D09B46E0
:1019D00002E0944207D09346DBF81C20002AF8D19D
:1019E0000023237470E7A34554D0E069D4F800E0E5
:1019F000CBF81C0000285CD09C4602687244026050
:101A0000634518BF4FF001080023087891F801E002
:101A1000237459E7326800230120C4E90033A3602E
:101A2000E36120747AB110683460C31A1360E26114
:101A3000F7E66044C31ACEF80030C4F800B0C4F82A
:101A40001CE0D46121E73460EBE6A2EB0B0222F04C
:101A50007F427245DED2AEEB02032360F3E600BFA5
:101A6000E4020020E5020020EC020020E802002051
:101A7000DC020020E07D0000CC010020FEFF7F00A2
:101A80000010014000E100E0D9020020D80200204F
:101A9000A3462246D3F81CC0C6F800C0BCF1000F14
:101AA00045D0D069D2F800E0CBF81C000028A4D1C2
:101AB000A6E70023087891F801E0237404E70027E3
:101AC000BA46A5E631600D469B1A0B604FF0010A3D
:101AD0009EE62449244A4FF48030C3F844034FF073
:101AE000010AC3F804034FF40030C1F8800142F04A
:101AF00001020860C3F800A04FF43C60904788F8EA
:101B000000A0FBE6184BD2F80415C2F8401543F0CC
:101B100001034FF43C609847124B4FF40032C3F876
:101B20000021002389F8003005B0BDE8F08FCDE931
:101B300002320E4BDFF83CE001209860019B89F8EF
:101B40000000CEF800C04FF43C609847D6F800C0C3
:101B50000749DDE90232A4E72F4656E62946002769
:101B6000B2E700BF00E100E0E07D000000100140AE
:101B7000CC010020E80200202DE9F8431F4D204E43
:101B8000204FDFF898804FF480334FF400324FF04D
:101B900001090024C6F8802047EA0907C5F8483340
:101BA0004FF43C60C5F80833C5F80490B847C5F851
:101BB00008904FF43C60C8F80040B847124A134BF5
:101BC00013491C601470134B134A0C700B211470D2
:101BD0001C8099704FF48012E023C6F8802186F8AB
:101BE00014333260C5F8084586F81133D5F804354A
:101BF000C8F800302046BDE8F88300BF001001405F
:101C000000E100E0E07D0000D9020020EC020020AD
:101C1000E4020020CC010020E5020020E8020020C0
:101C200072B6024A1368013313607047F002002055
:101C3000034A1368013B136003B962B6704700BFE3
:101C4000F002002010B44FF080414FF0805200208D
:101C5000C1F80C015E4BC1F81001C1F83805D2F88B
:101C60000414C3F82015D2F80814C3F82415D2F8C8
:101C70000C14C3F82815D2F81014C3F82C15D2F898
:101C80001414C3F83015D2F81814C3F83415D2F868
:101C90001C14C3F84015D2F82014C3F84415D2F828
:101CA0002414C3F84815D2F82814C3F84C15D2F8F8
:101CB0002C14C3F85015D2F83014C3F85415D2F8C8
:101CC0003414C3F86015D2F83814C3F86415D2F888
:101CD0003C04C3F86805D2F840043E49C3F86C05DB
:101CE0000968D2F84424C3F87025082924D04FF09D
:101CF0008043D3F80024D20744BF6FF00102C3F839
:101D00000024354AD2F8883043F47003C2F8883092
:101D1000BFF34F8FBFF36F8F4FF01023D3F8002224
:101D2000002A23DBD3F80432002B1FDB2B4B2C4A79
:101D30001A605DF8044B70472A4B1B68002BD6D104
:101D400029482A4A2A4C04602A492B4BFB20C2F816
:101D500018050A681B68294822F00F0203F00F03D8
:101D600013434FF400720B600260C0E7244A012362
:101D7000C2F80435D2F80034002BFBD04FF010230A
:101D800012211F4AC3F80012D2F80034002BFBD0F6
:101D90004FF0102312211A4AC3F80412D2F800346B
:101DA000002BFBD000231649C2F80435D1F80034CB
:101DB000002BFBD0BFF34F8F0749124BCA6802F4C8
:101DC000E0621343CB60BFF34F8F00BFFDE700BF5E
:101DD00000C000403001001000ED00E008000020CD
:101DE0000090D003340100108C56004000F00040F9
:101DF00048810300E40E0040580200104096024063
:101E000000E001400400FA0530B583B001A9124892
:101E100004F068FEF0B1114D0446286820600020EF
:101E2000FFF7FEFE0E4B0F481B88026801339B1A1A
:101E3000E380002104F0D4FEA0800020FFF7F8FE2C
:101E400001A9054804F07CFE074B1B6813B101464D
:101E50002846984703B030BDA0040020007E000053
:101E600094030020BC040020F802002030B5044692
:101E7000007883B020B301A91E4804F033FE054664
:101E8000E0B1236803600020FFF7CAFE1A4B1B482D
:101E90001B88026801339B1AEB80002104F0A0FE2E
:101EA000A8800020FFF7C4FE01A9124804F048FEF4
:101EB000134B1B6813B101462046984703B030BD51
:101EC0000E4DFFF7ADFE2B687BB101210B4804F0EE
:101ED0009DFE0020FFF7ACFE094B1B6813B12046A6
:101EE000012198472B6803B030BD034B62881A80EC
:101EF000EBE700BFA004002094030020BC040020F6
:101F0000F802002070B5012882B02AD044B2002C1B
:101F100030D0022823D101A92A4804F0E3FD044669
:101F2000E8B1294D286820600020FFF779FE274B93
:101F300027481B88026801339B1AE380002104F0C4
:101F40004FFEA0800020FFF773FE01A91D4804F09A
:101F5000F7FD204B1B6813B101462846984702B095
:101F600070BD01A9174804F0BDFD04460028F6D055
:101F7000194DD7E701A9134804F0B4FD0546002820
:101F8000EDD0164E306828602046FFF749FE0F4B13
:101F90000F481B88026801339B1AEB80214604F02E
:101FA0001FFEA8802046FFF743FE01A9054804F064
:101FB000C7FD084B1B68002BD1D00146304698471F
:101FC000CDE700BFA0040020FC7D000094030020AA
:101FD000BC040020F8020020F87D0000F47D000021
:101FE0002DE9F04F87B000250446894692469B466E
:101FF0000295A84601E008F10108626801235568CE
:102000002146002202A8A8470028F4D18DF8060036
:102010000490B8F1000F2AD0054606460AE09DF864
:1020200006306768023B7F68B8479DF806301E445B
:10203000B0451CD962680123576821460DF106029C
:1020400004A8B84762680123576821460DF10702CA
:1020500004A8B8479DF807304B454FF000022146D1
:1020600004A8DCD1AA4506D00135EDB2D7E705209A
:1020700007B0BDE8F08F109A9DF8063013608BF81A
:1020800000308BF801906168023B4D680BF1020251
:102090002146A847002007B0BDE8F08F2DE9F041A8
:1020A000082382B005464FF484723A493A4804F056
:1020B00001FD00285ED1394803F022FA044618B128
:1020C000204602B0BDE8F081354A3649364B1470DF
:1020D0000C604822214635481C6005F099F92146DC
:1020E0004822334805F094F9002D4DD095E80700BB
:1020F000304B83E80700002004F0AEFD00283ED1FD
:102100002D4D2B4F2B7A6E68DFF8A0E005F109000A
:102110004FF0030C1CFB030C60451ED0E8B1437864
:10212000C3B18278821815D003F1FF38114652FAF4
:1021300088F8013A12F8014F04F00F03DB0024067F
:102140004CBF7344DB1990451D6034685C6001D05E
:102150000131EFD103306045E0D10B238DF804301D
:102160003368154801A9984704460028A8D003F011
:1021700061FAA5E70324204602B0BDE8F081852876
:10218000BED0FFF789FABBE70A4BC3E900551D72C1
:10219000B1E700BF98030020A00400206D1E0000DE
:1021A000C0040020B0040020B40400200403002078
:1021B0004C030020F8020020287E000010B503F038
:1021C0006BFB68B103F070FB044648B9064804F0A5
:1021D00053FD034628B1FFF75FFA2346184610BDAA
:1021E0000823184610BD00BFF07D000003F032BA8E
:1021F00004F0F6B84FF0804303E0D3F83824D10759
:102200002BD5D3F838249207F7D530B583B001A980
:10221000124804F067FC0446E8B1114D28682060BC
:102220000020FFF7FDFC0F4B0F481B8802680133AD
:102230009B1AE380002104F0D3FCA0800020FFF76C
:10224000F7FC01A9054804F07BFC084B1B6813B19F
:1022500001462846984703B030BD7047A0040020CF
:10226000047E000094030020BC040020F80200203B
:1022700010B582B0822301A912488DF8003004F015
:1022800031FCE8B10446009820600020FFF7C8FC4C
:102290000D4B0E481B88026801339B1AE380002116
:1022A00004F09EFCA0800020FFF7C2FC01A90548B5
:1022B00004F046FC064B1B6813B10146684698477C
:1022C00002B010BDA004002094030020BC04002034
:1022D000F80200202DE9F043057A83B07DB36B1E30
:1022E00000F10906DBB2314603EB430300F10C0CAD
:1022F000344FDFF8D4E01E44ACEB010C4FF0000883
:102300004C780022944215D08B781344D94211D0D6
:1023100011F8039009F00F03DB0019F0800F14BFD0
:102320007344DB1901321B68002BEBD0112003B082
:10233000BDE8F0838E4202D061444145E0D10021E6
:10234000CAB2954200F109041E4E1F4F27D902EB75
:102350004202A21823D05378EBB19378D31818BF58
:102360004FF0010C17D01D7805F00F03DB002D0690
:102370004CBFDB199B19186045682D685D60537868
:1023800063450CF1010505D993786344D3185FFACE
:1023900085FCE8D1057A0131CAB29542D7D80B4AFB
:1023A00013681BB11A681368002BFBD110604368D7
:1023B0000B228DF804201B6801A9984703B0BDE8E3
:1023C000F08300BF4C03002004030020B004002071
:1023D000024B1878003018BF01207047B804002065
:1023E000014B1868704700BFB004002070B4114B57
:1023F0001E68A6B1357A75B1737A834212D032461F
:10240000002302E0547A84420DD00133DBB29D42B6
:1024100002F10302F6D133681E68002EEAD130467D
:1024200070BC704700230029F9D030460B7070BC97
:10243000704700BFB0040020436811461B6818476E
:1024400000F00F03082B0AD802064CBF054A064AC3
:10245000DB001344186810B143681B68184710204C
:10246000704700BF040300204C03002038B5094B1F
:102470001C6864B1054602E023681C683CB16368CF
:1024800029461B68204698470628F5D038BD062007
:1024900038BD00BFB004002038B50D46044603F037
:1024A00067FA18B1054B1B78022B01D0082038BD04
:1024B00029462046BDE8384003F06ABAC00400202F
:1024C00038B50D46044603F053FA18B1054B1B7896
:1024D000022B01D0082038BD29462046BDE83840EF
:1024E00003F0ECBAC0040020F8B543689B680646C8
:1024F0000D4614461BB19847062800D0F8BD14BB02
:10250000337AAB4224D9093605EB450535446F785B
:10251000BFB1013FFFB204E001346A78E3B29A42EE
:1025200013D9AB782A19D65C330705D4304603F0AB
:1025300057FB304603F028FB304603F0F5FDA74279
:10254000EAD10020F8BD0720F8BD00231B78FFDE8C
:102550006378FFDE43681B6903B11847184670476C
:102560002DE9F047274BD3F80090B9F1000F44D084
:1025700099F808A0BAF1000F38D000273C4609F1BD
:10258000090505E00137FCB2A24505F103052DD987
:10259000D9F804309B682BB1002221464846984761
:1025A0000628EFD199F80830A34228D96B78002B80
:1025B000E8D003F1FF385FFA88F80024AB782A19D5
:1025C000D65C330705D4304603F00AFB304603F0EF
:1025D000DBFA304603F0A8FD4445D3D001346A78D5
:1025E000E3B29A42EAD800231B78FFDED9F8003024
:1025F000D3F80090B9F1000FBAD1BDE8F0870023FD
:102600005B78FFDEB00400202DE9F843204BD3F8BF
:102610000090B9F1000F32D099F80880B8F1000F9E
:1026200026D000273C4609F10905D9F80430DB68BB
:1026300013B121464846984799F80830A34220D95B
:102640006B787BB1013BDEB2002404E001346A7890
:10265000E3B29A4218D9AB782A19D05C03F080FF14
:10266000B442F3D10137FCB2A04505F10305DCD833
:10267000D9F80030D3F80090B9F1000FCCD1BDE803
:10268000F88300235B78FFDE00231B78FFDE00BFAA
:10269000B004002070B503780446842B00F2BC809F
:1026A000DFE813F0F801AC01BB000C025502E000BA
:1026B000E700BA00FF0012012501BA00BA00BA0013
:1026C000BA004701BA00BA00BA00BA00BA00BA00AC
:1026D000BA00BA00BA00BA00BA00BA00BA00BA002A
:1026E000BA00BA00BA00BA00BA00BA00BA00BA001A
:1026F000BA00BA00BA00BA00BA00BA00BA00BA000A
:10270000BA00BA00BA00BA00BA00BA00BA00BA00F9
:10271000BA00BA00BA00BA00BA00BA00BA00BA00E9
:10272000BA00BA00BA00BA00BA00BA00BA00BA00D9
:10273000BA00BA00BA00BA00BA00BA00BA00BA00C9
:10274000BA00BA00BA00BA00BA00BA00BA00BA00B9
:10275000BA00BA00BA00BA00BA00BA00BA00BA00A9
:10276000BA00BA00BA00BA00BA00BA00BA00BA0099
:10277000BA00BA00BA00BA00BA00BA00BA00BA0089
:10278000BA00BA00BA00BA00BA00BA00BA00BA0079
:10279000BA00BA00BA00BA00BA00BA00BA00BA0069
:1027A000BA00BA00380185005B013702DB018A4BB1
:1027B0008A49D3E900029047894B1C684CB1874D88
:1027C000636820461B682946984723681C68002CCC
:1027D000F6D1844C63680BB10D209847824B1B687F
:1027E000002B00F0EF810120804D03F00DF8FFF782
:1027F0000BFF2A78931EDBB2062B0BD87C49CB5CEF
:1028000013B104F0A9F82A78022A01D0082A01D1CC
:1028100003F08AF801232B7070BD744D2A78931E43
:10282000DBB2062B0BD87249CB5C13B104F094F8E1
:102830002A78022A01D0082A01D103F075F8694BE1
:102840005B6803222A700BB102209847644B1D6815
:1028500045B16B6828461B68214698472B681D6860
:10286000002DF6D15C4B2146D3E90002BDE8704053
:1028700010478278110602F00F034CBF5D4A564A9A
:10288000DB001344D3E90002214690470028C3D05F
:10289000A0780207C0D00307BED4BDE8704003F0A3
:1028A00067B9504B5B680BB1082098474C4B1D68CB
:1028B000002DB1D06B6828461B68214698472B68CD
:1028C0001D68002DF6D170BD464B5B680BB1092029
:1028D0009847434B1D68002D9ED06B6828461B68A7
:1028E000214698472B681D68002DF6D170BD3D4BE1
:1028F0005B680BB10A209847394B1D68002D8BD0BF
:102900006B6828461B68214698472B681D68002D78
:10291000F6D170BD354D2B78062B00F05581072B75
:1029200002D0052B7FF478AF03F008F802232B7058
:1029300070BD2C4B5B680BB10F209847284B1D686E
:10294000002D3FF469AF6B6828461B682146984705
:102950002B681D68002DF6D170BD244DFFF754FE85
:1029600003F098FC2A78931EDBB2062B0BD8204983
:10297000CB5C13B103F0F0FF2A78022A01D0082AB9
:1029800001D102F0D1FF164B1C6800232B704CB113
:10299000194E636820461B683146984723681C68B7
:1029A000002CF6D10C4B1449D3E9000290470D4B93
:1029B0005B680BB10E2098472B78023BDBB2062BED
:1029C0003FF62AAF0A4AD35C002B3FF425AFBDE89F
:1029D000704003F0C1BF00BF4C030020087E000020
:1029E000B0040020F8020020B4040020C00400203D
:1029F000E87D0000040300200C7E0000874DFFF7F7
:102A000003FE2A78931EDBB2062B00F2CE808449A7
:102A1000CB5C002B00F0C980022A03D0082A01D029
:102A200002F08CFF7F4B5B6802222A700BB1012001
:102A300098477D4B2146D3E9000290477B4B1D68A8
:102A4000002D3FF4E9AE6B6828461B682146984785
:102A50002B681D68002DF6D170BD704D2B78032BAF
:102A600000F0B78002F02AFF00283FF4D5AE2A78A4
:102A7000931EDBB2062B40F2CA806D4803F03EFF86
:102A80002A78022A01D0082A01D102F04DFF06233C
:102A90002B7070BD634B5B680BB100209847654B92
:102AA0001D68002D3FF4B8AE6B6828461B682146B0
:102AB00098472B685D68002DF6D170BD574D2A7878
:102AC000931EDBB2062B75D85549CB5C002B71D019
:102AD000022A01D0082A01D102F026FF514B5B687F
:102AE00005222A700BB1032098474F4B2146D3E9AA
:102AF000000290474D4B1D68002D3FF48DAE6B6872
:102B000028461B68214698472B681D68002DF6D182
:102B100070BD424D2B78032B7FF47EAE03F0B2FDE7
:102B200000283FF479AE2A78931EDBB2062B0BD82F
:102B30003B49CB5C13B103F00FFF2A78022A01D086
:102B4000082A01D102F0F0FE04232B7070BD354B32
:102B50005B680BB103209847334B3749D3E9000238
:102B60009047324B1C684CB1334D636820461B685C
:102B70002946984723681C68002CF6D1274D2B78EE
:102B8000062B1CD0082B0DD09A1ED2B2062A39D99A
:102B9000274803F0B3FE2B78022B03D0082B01D07B
:102BA00002F0CCFE02232B7070BD214803F0A6FE7C
:102BB0002A7831E71E4803F0A1FE2A7888E7072328
:102BC0002B7070BD207A0FE602F0B8FE08232B7040
:102BD00070BD03F057FD00283FF444AF2A78931EE0
:102BE000DBB2062B0BD80E49CB5C13B103F0B4FE5D
:102BF0002A78022A01D0082A01D102F095FE042386
:102C00002B702FE706498A5C002AC5D1C0E704492A
:102C1000CB5C002B7FF435AF2FE700BFC004002052
:102C2000E87D0000F80200204C030020B0040020E2
:102C30000C000020B4040020107E000070B5284E67
:102C400082B03468002301930CB3A588A5B1E38852
:102C5000B3F5006F3ABF5A1C92B2012205F1FF355D
:102C600028BF002301A8A580E280ADF80630FFF759
:102C700011FD012002B070BD2046FFF70BFD194980
:102C8000194803F09DFF0120356002B070BD154961
:102C9000154803F065FF044630600028D5D1134B7A
:102CA0001B6813B9184602B070BDFEF7B9FF104A91
:102CB0000E481388B3F5006F35BF5C1C2346A4B2E1
:102CC000012401211480ADF8063003F0ABFF002091
:102CD000FEF7AEFF01A8FFF7DDFC0120CAE700BF49
:102CE000C4040020F4020020A0040020BC04002042
:102CF000940300202DE9F0410468924E0D7A35705E
:102D0000B4F5517F00F0F28440F2268140F256354E
:102D1000AC4200F0528440F2F78040F27235AC428F
:102D200000F0DF8440F2D88040F28335AC4200F0FE
:102D3000BC83B4F5617F12D340F28935AC4200F018
:102D4000138340F28E35AC4200F00E83B4F5617F00
:102D500000F09084002303601846BDE8F08140F243
:102D60007735AC4202D0B4F55F7FF3D10125002462
:102D70000AB1077917554024AB42047140F23184FF
:102D80006C1C002A00F03E8407795755A3424FF08F
:102D90000005057140F2A583171901343D706A4D95
:102DA0000F7D2D682D78AF4200F021848F7DAF42DA
:102DB00009D100259C42057180F0528625460134D8
:102DC0000AB107795755DFF88CC1604F9CF8005065
:102DD0003F780135EDB28CF80050AF4200F26E83BF
:102DE000DFF86CC135789CF800700137FFB28CF8C1
:102DF0000070AF4280F06B830925A342057140F259
:102E0000E085651C002A00F0B58507791755AB42AF
:102E10004FF00404047140F27E85274602EB050C56
:102E20006C1C8CF800700D7A494F3F78AF4280F0EF
:102E30002C8607EB470701F10905DFF80CC115F8EF
:102E400007E080F804E02F44A342CCF8007040F281
:102E50003485671C002A00F03C8505791555BB4276
:102E60004FF00004047140F21685374DA4462C68DB
:102E70007D1C02F807C0AB426778077140F2F98405
:102E800002EB050C01358CF8007024780F7DA74209
:102E900000F0DC848F7DA74240F0EB820A24AB4235
:102EA000047140F2E9856C1C002A00F03A8507792C
:102EB00057554FF0000CA34280F804C040F29285B1
:102EC000651C0027AB4202F804C0077140F231854F
:102ED000541901352770CCE240F25935AC4200F06C
:102EE000788440F28D8140F26D35AC4200F0608212
:102EF00040F26E35AC427FF42DAF002A00F0108313
:102F000007799446012464E2B4F5537F00F01E84EF
:102F100040F2A68140F25135AC4200F0EF8340F21E
:102F2000848140F25235AC4200F0248240F25535A3
:102F3000AC427FF40FAF002A00F00E83077994466D
:102F40000124B9E0CA040020CC040020C8040020F9
:102F5000C9040020CB04002040F22637BC4200F018
:102F6000298340F2F58040F23335AC4200F0A38271
:102F7000B4F54D7FC0F0D680B4F54F7F00F0988255
:102F800040F2BF8040F24235AC4200F0F88300F2DC
:102F90000D8440F24135AC427FF4DCAE01250024C3
:102FA000002A00F0CC84077917559D424FF0240485
:102FB000047180F09B84274605F1010C00246345D1
:102FC0005755047140F2738425460CF10107102413
:102FD000BB4202F80C50047140F25784254607F1B9
:102FE000010C01246345D555047140F23C8425460B
:102FF0000CEB04070524BB4202F80C50047140F2AC
:103000001F84254607F1010C24246345D55504711E
:1030100040F20A8425460CF101070124BB4202F864
:103020000C50047140F2F483254607EB040C032492
:103030006345D555047140F2E5830CF1010702F8B0
:103040000C40BB4291F816C080F804C040F2D48313
:103050007C1C0425A34202F807C0057140F2C68318
:1030600002EB040C2F4601342425A3428CF8007097
:10307000057140F2B5832F46651C1755AB424FF0E2
:103080000204047140F2438202EB050C274601352D
:103090000224AB428CF80070047140F26A83274628
:1030A0006C1C5755A3424FF00505057140F225826F
:1030B00002EB040C2F4601342425A3428CF8007047
:1030C000057140F222832F46651C1755AB424FF025
:1030D0000604047140F23483571901353C700F7DAA
:1030E0000771AB4240F2DF826C1C5755A3428D7DC5
:1030F000057140F20782171901343D70CD4D2D68DE
:10310000C8E1B4F54D7F00F0BD8240F23535AC42E8
:103110007FF420AE002A00F0FF8114460779277063
:103120000125A6E1B4F54B7F00F08A812CD940F24D
:103130002D35AC4200F0F68240F22E35AC427FF4E1
:1031400009AE002A00F0E8810479944601258EE159
:1031500040F21637BC4200F01A8339D940F21937D1
:10316000BC4200F0D88221D9B4F5487F00F05F81DD
:1031700040F22137BC427FF4EDAD002A00F0CE8151
:103180000779944601244CE640F22735AC4200F022
:103190001583B4F54A7F7FF4DDADA64C2468002A80
:1031A00000F0DE810779944601256CE640F217377E
:1031B000BC4200F06F82B4F5467F7FF4CBAD002AAD
:1031C00000F0CC8190F804E001244FF0000CA8E05E
:1031D00040F21337BC4200F04382B4F5457F57D329
:1031E00000F0358240F21537BC427FF4B3AD002ABF
:1031F00000F0988107794FF001084FF0000C72E061
:1032000040F25735AC4200F01B82B4F5567F7FF494
:10321000A1AD01240025002A40F074838D7D057145
:10322000A34240F26F81013468E740F24F35AC426F
:1032300000F07F82B4F5547F7FF48CAD012500242B
:10324000002A40F062830224AB42047140F25F81A5
:1032500001350224AB42047140F28B826C1C8EE07B
:1032600040F24935AC4200F034826CD940F24A3524
:10327000AC4200F0268240F24B35AC427FF46AAD9E
:10328000002A00F06F81047901274FF0000CD6E688
:10329000002C00F0638240F21237BC427FF45AAD3A
:1032A000002A00F07B8304791470012B4FF00B048B
:1032B000047140F29D834FF0030C02274FF0010E82
:1032C00002F80E40BB4291F814E080F804E040F2AE
:1032D000FA820224634502F807E0047140F2E182B9
:1032E00027460CF101080224434502F80C700471D2
:1032F00040F2C582274608F1010E0224734502F808
:103300000870047140F2A9820EF1010C02F80E401F
:10331000634591F819E080F804E040F28B820CF1EB
:1033200001040027A34202F80CE0077140F2768204
:1033300002EB040C01348CF80070DFF800C10027A8
:103340008CF8007055E540F24535AC4200F0B18193
:10335000B4F5527F7FF4FEAC002A00F017810579A6
:103360004FF0010C00274FE601240025002A7FF4CE
:1033700028AD28E501240025002A40F0C982052552
:103380009C42057180F0B98001342425A342057167
:1033900040F2BB81651C0624AB42047140F2D0812F
:1033A00001350C7D04719D4280F07D816C1C35E7F8
:1033B00001250024002A00F09980077917559D42C5
:1033C0004FF00504047180F02481274602EB050CC0
:1033D0006C1C8CF80070174F174D3F682D7897F8CC
:1033E00001C0AC4540F24E8397F802C03D44A34271
:1033F00015F80C50057140F21281651C1AB190F855
:1034000004C002F804C03C780F7DA74200F00D8193
:103410008F7DA7427FF4AFAC0224AB42047140F22F
:1034200025832C460135002A7FF4A3ACA3E40125B3
:103430000024E7E4CC040020CB040020C9040020D1
:1034400001240025002A00F0C28207795755A342C3
:103450004FF00205057140F29B82671C1555BB4277
:103460004C7E047140F2488202EB070C7D1C8CF804
:1034700000400024AB42047140F2A6806C1C0AB1EB
:1034800007795755C64D91F814C02D682F78BC4563
:1034900000F0A080DFF80CE3DFF80CC36F788EF843
:1034A000007000258CF8005097E40124002568E4A2
:1034B00001240025E3E701240025F5E40725A342C4
:1034C000057109D9651C002A7FF477AF0EE040F240
:1034D00099330360012040E440F26D330360012022
:1034E0003BE44FF461730360012036E405249D4200
:1034F000047180F08E806C1C6DE740F255330360E0
:1035000001202AE440F259330360012025E440F20F
:1035100051330360012020E40125AAE7012483E45C
:10352000012458E701240227A342077140F2A78132
:1035300001340227A342077140F28F8101344F7E8C
:103540000771A34240F2768101340027A34207713C
:1035500040F264810134F0E6012416E70124F4E727
:10356000012592E401248D7D0571A34240F244813E
:1035700001340425A342057140F238810134242529
:10358000A342057140F22C81651C5CE601242425D0
:10359000A342057140F2488101340125A34205711F
:1035A00040F236812C440325A342057140F22A8162
:1035B0000134D8E7012700244CE401250024002A27
:1035C0003FF4E9AE077980E54FF44F7303600120C3
:1035D000FFF7C3BB0525A342057140F2D381651CEB
:1035E000DEE440F2833303600120FFF7B6BB102511
:1035F0009C420571FFF4E2AB40F289330360012085
:10360000FFF7ABBBA34202717FF66BAF0134FFF74C
:10361000C6BB40F26E3303600120FFF79EBB40F251
:10362000723303600120FFF798BB0324AB4204719F
:103630003FF6F7AE40F2773303600120FFF78DBB12
:10364000002A00F0ED8104791746012546E5002A9D
:1036500000F0E88190F804E04FF0010C002738E614
:10366000002A00F0E18104794FF0020C01274FF0AD
:10367000000E25E6002A00F0D081057917460124C6
:10368000FFF78CBB002A00F0C28190F804C001252E
:10369000002416E4002A00F0BC8104794FF0010CEC
:1036A0004FF0000E32E64FF4567303600120FFF72F
:1036B00054BB002A00F0BB81057901274FF0000CB4
:1036C00098E4002A00F0BB8105794FF0010C002737
:1036D000ADE4002A00F0B581057901274FF0000C18
:1036E0009BE42F4C01252768002487E6002A00F080
:1036F000A08105794FF0010C002772E4002A00F048
:10370000A681077994460125C2E440F2563303604E
:103710000120FFF722BB002A00F08D810779944633
:10372000012408E6002A00F08E8105790127002493
:1037300094E6002A00F06F8107799446012493E40F
:1037400040F2573303600120FFF707BB002A00F067
:10375000748190F804C0012400277AE408240471DD
:10376000002B7FF49DAD40F2123303600120FFF780
:10377000F4BA40F2523303600120FFF7EEBA002A98
:1037800000F0688107794FF0010C002516E4002A4B
:1037900000F05B8107794FF0010E4FF00008ACE5B7
:1037A000CC040020C8040020CB040020002A00F034
:1037B0005381057901274FF0000C08E4B54C2468CB
:1037C000002A00F04B8190F804C001250027FFF784
:1037D00050BB002A00F018810579174601248CE4BB
:1037E0004FF4547303600120FFF7B7BA40F24F3330
:1037F00003600120FFF7B1BA4FF453730360012057
:10380000FFF7ABBA40F24B3303600120FFF7A5BAD4
:1038100040F24A3303600120FFF79FBA40F21933A8
:1038200003600120FFF799BA40F249330360012099
:10383000FFF793BA4FF4467303600120FFF78DBA88
:103840004FF4527303600120FFF787BA0224AB42A2
:10385000047140F2D3806C1CF4E540F2173303602E
:103860000120FFF77ABA40F2453303600120FFF7E9
:1038700074BA4FF44A7303600120FFF76EBA40F246
:10388000163303600120FFF768BA4FF451730360E9
:103890000120FFF762BA40F2273303600120FFF7EF
:1038A0005CBA40F2153303600120FFF756BA40F2CC
:1038B000433303600120FFF750BA40F22633036020
:1038C0000120FFF74ABA4FF4457303600120FFF768
:1038D00044BABB420271DED96E4C24687D1C677805
:1038E0000771AB42C5D90135FFF7CFBA40F2423379
:1038F00003600120FFF731BA40F22E33036001204C
:10390000FFF72BBA0779FFF7F0BB0779FFF7B5BBD5
:103910000779FFF7C6BB40F2213303600120FFF7B0
:103920001CBAA34202715DD901340025A34205717E
:1039300056D840F2353303600120FFF70EBA242435
:103940009D420471D2D26C1C0025A3420571AED9F0
:1039500001341025A342057197D901340125A342F2
:10396000057180D92C440525A34205717FF668AF07
:1039700001340CE60424AB420471CCD96C1C0D7AE2
:10398000FFF752BA40F2413303600120FFF7E5B977
:1039900040F22D3303600120FFF7DFB90B24012B28
:1039A000047125D90324022791F814C080F804C0BB
:1039B000BB4288D90227A34207717FF672AF013458
:1039C000B1E54FF4487303600120FFF7C6B9022543
:1039D000A3420571DCD901344D7E0571A3428BD918
:1039E000651C46E54FF44D7303600120FFF7B5B940
:1039F00040F2133303600120FFF7AFB94FF44B736C
:103A000003600120FFF7A9B90124FFF777BB012468
:103A10008BE7012493E50124B1E50124FFF7BFB949
:103A20000125BEE40124C5E702240127BCE70124E7
:103A300099E7012492E701247FE4012499E5012418
:103A4000B1E50124A9E50124C6E7012471E50125BA
:103A5000FFF7FFBB012477E701247AE701253EE762
:103A600040F28E3303600120FFF777B94FF45F73A4
:103A700003600120FFF771B940F233330360012086
:103A8000FFF76BB900231B78FFDE024A00231360A7
:103A90001B78FFDECC04002080B90B681A7A202A3C
:103AA00001D00620704710B50722044603F10A0131
:103AB00003F1140003F09EFC204610BD0320704764
:103AC0004360CA699A4210D38A6910B40260C86917
:103AD0000C6FC01A1C441A44C86100300C6718BF30
:103AE00001208A615DF8044B704701F128020260F1
:103AF00000208B67704700BF2DE9F0470B7888B036
:103B00000E4605460E2B25D8DFE803F018081818D6
:103B1000241D2924240824181818180003680024D8
:103B2000C3E91D44C3E91F4403F130021A679C83B3
:103B30001C629C62204608B0BDE8F0870024204645
:103B400008B0BDE8F0874B78D9094FEA531226D167
:103B5000012A40D00624204608B0BDE8F087027A4A
:103B60008B78002A00F07081817A0930002900F0FA
:103B70006981E97A415C9942E0D01B06F47821D44E
:103B8000012CDBD04FFA84F8B8F1000F42D0032C9F
:103B90000CBF00240324204608B0BDE8F08712F0D3
:103BA00003026BD0012AD5D1B378212BD2D1B6F83C
:103BB0000720072ACED10168701C143100F05AFA90
:103BC0000446B7E7002CE2D1EB69002BB6D02846BB
:103BD00001219847AEE7B3780768202B00F0C0803A
:103BE000222BB7D1B6F80740002CB3D1B6F803307A
:103BF0003A7FBB8302F0010203F001039A4299B2BB
:103C00009CD0C369002900F0CD80002B96D0022102
:103C100098478FE72E68012A06F1080140F20F81CC
:103C20006A7B012A05F10C0340F206810691AA7B0A
:103C3000864905911344746A5F78002C3ED1B26FB7
:103C4000B36A7467C6E91E42002B00F0A68006F135
:103C5000280393E80300002206F1200383E8030011
:103C60003846B26205A9FEF72BFC0446EB69002B2F
:103C70003FF460AF2846002198475BE703F01F033D
:103C8000012B7FF467AFB478062C7FF463AF05A8EF
:103C9000039200F063FD03AA009207463B462846C4
:103CA000F2783179FEF79CF905283FF443AF3946A5
:103CB000701C039A00F0DEF904463BE7D6F880A0BA
:103CC000306A544528BF544606F1300C22466146FE
:103CD000E14603F08FFBB16FB26AC6F87880AAEBB9
:103CE000040309EB040C0C44C6E91CC3F467002A66
:103CF00056D006F1280898E8030006F120044FF09A
:103D0000000984E80300C6F82890002B6FD0726A7F
:103D100093420ED274E098E8030084E80300736FC6
:103D2000C6F82890002B62D0726AD6F870C09A420A
:103D300066D86146306A03F05DFBD6E91C32716AD1
:103D4000F1670B44521AC6E91C32EB6913B100212A
:103D500028469847B36A002BDDD13362002485E7FB
:103D6000B6F80720072A7FF4F5AE3B72B6F80730A5
:103D70000024DBB27B7220460A37CDE90573079435
:103D8000FDF74EFF204605A9FEF786FB04460028F6
:103D900044D00020FDF74CFFCCE60023336265E7FA
:103DA0000023DAE70BB1032198472B7A012B40D986
:103DB0006B7B05F10C04002B39D0AB7BE05C02F08F
:103DC00009FA2B7A012B34D96B7B012B2ED9AB7BD3
:103DD0001C44607802F0FEF9002407F130033C62D5
:103DE000BC62C7E91D44C7E91F443B67A2E6336ACA
:103DF000002BB3D0384605A9FEF762FB044635E731
:103E00001A466146306A03F0F5FAD6E90832716F56
:103E1000B167521A0B44C6E90832E9E70C4B049526
:103E200003A9039300F086FC0446B2E700231B7845
:103E3000FFDE00235B78FFDE98F80030FFDE98F8A5
:103E40000130FFDE0B78FFDE5378FFDEC13A000061
:103E5000993A000003689B8BDB0713D5037A012B8B
:103E600014D910B5437B84B000F10C0463B1837B9B
:103E70000191E05C0292002301A90393FEF70CFB81
:103E800004B010BD082070471B78FFDE00235B786C
:103E9000FFDE00BF0368D86F704700BF70B50468CD
:103EA000A58BEB0782B035D5256A16462DB1A26ADF
:103EB000002A32D0112002B070BD636F934231D21C
:103EC000C4E90812027A012A39D9467B012E00F191
:103ED0000C0236D9807B1C4E0096024404F1080087
:103EE000567801906BB11A460846216F03F082FAAA
:103EF000D4E90832616FA167521A0B44C4E9083251
:103F0000656730466946FEF7DBFA002808BF922055
:103F100002B070BD082002B070BD9220C4E90A163C
:103F200002B070BD0846216F03F064FAD4E91C3278
:103F3000921B3344E6672846C4E91C32BBE76B7822
:103F4000FFDE2B78FFDE00BFC13A00000020704783
:103F50002DE9F04F4B6885B0002B71D00C4615460B
:103F6000CDE9000201F000FEE668AE4228BF2E4611
:103F70008246002E79D04FF000094A46CB464FF0DA
:103F8000010813E00AEB02002A4603F033FAD4E9F1
:103F900002325B1B551BC4F804B0C4E9023523B3DD
:103FA000002D08BF4FF000083A4636B3D4E901139C
:103FB000B3421D4628BF3546761BAF180029E1D114
:103FC00093B12046524450F8101B4B68D3F804902C
:103FD0002B46C847D4E902325B1B551BC4E90235A6
:103FE0009BB14FF00109DBE7E568B9F1000F0CD197
:103FF0009DB9A8463A46002ED8D1009BC3F800A030
:104000005F60404605B0BDE8F08F23681B681B6801
:1040100023604FF00109002DEBD02168E1B1CDF80C
:1040200008B003E0A36821680133A3604B68002255
:104030005D6802A80123A8470028F3D12061B3E7F7
:104040000B681B681B68002B88D18B68002B85D1FF
:10405000C0E900339846D4E76160002FCDD0019BC2
:10406000BB4288BF4FF00008C7E737464FF0010852
:10407000C3E700BF70B5C38893421D4628BF1546ED
:10408000934284B00E4612D8002200200392CDE95C
:104090000165FDF7C5FD01A98020FEF7FDF9044685
:1040A00088B10020FDF7C4FD204604B070BD80201B
:1040B000144601F04DFCB4FBF0F303FB1042B2FADE
:1040C00082F25209E1E701F00BFE80280BD1094A88
:1040D000094B92E8030083E803000020FDF7A8FDE8
:1040E000204604B070BD0020FDF7A2FD102420463C
:1040F00004B070BD707E0000F80400202DE9F04F80
:104100000B78013B87B00D2B00F28B80DFE803F0CA
:1041100017120789273E89898989126B7A58BF4807
:1041200002F08EFD30B1BE4B01221A60BFF36F8FDB
:10413000BFF34F8F0024204607B0BDE8F08FB94B86
:104140001A78032A6DD0B849B8480A78032422F0B7
:1041500002021C700A700624FEF79CFAEBE70523A6
:104160000DF101008DF8003001F04AFD9DF801309D
:10417000AF4D002203F01F042A60032C00F2AA8135
:10418000DFE814F0F8001801C700B600C87803286B
:104190000D4646D0A64E3368002B00F09D810022CC
:1041A0003260716898470446002863D13368002B59
:1041B00000F09481AB78002BBCD101F047FDBAE749
:1041C000984B1A78012AB5D0974998480A78012463
:1041D00022F002021C700A70FEF75CFA00242046EE
:1041E00007B0BDE8F08F8F4B1A78002AA2D08E4915
:1041F0008E480A78002422F002020A701C70FEF732
:1042000049FA98E74FF08042864BD2F838141A7872
:10421000C90735D5022A8DD0834984480A780224FB
:10422000D6E70624204607B0BDE8F08F052A02D065
:10423000310740F06E81304601F0B0FCBDF8073028
:104240007C4E022B1F4628BF0227022B308000F233
:10425000038200200594CDE90367FDF7E1FC03A983
:104260008020FEF719F90446002800F0B1810020F3
:10427000FDF7DEFC01F02AFD204607B0BDE8F08F17
:10428000012AA1D156E7062900F0CE81082900F0C5
:10429000AC8169BB674E0222304603F0B9F8624A2E
:1042A00033781278920743F0010148BF43F00303CB
:1042B000317048BF3370BDF80730022B1C4628BF51
:1042C0000224022B00F2ED8100230020CDE90364DB
:1042D0000593FDF7A5FC03A98020FEF7DDF8044651
:1042E000002800F075810020FDF7A2FC062CC1D14A
:1042F0006846FEF7BBF80446002CBBD12C68002CA6
:1043000000F0FF8001F0ECFC044600287FF412AFBF
:1043100053E79DF80500040707D06946FEF790F8BB
:1043200006280446E8D19DF80130C3F34114002C5F
:1043300040F0D0809DF802303A4A9DF8056012782E
:10434000012B00F0E880002B3FF470AF032B40F00E
:10435000C180330700F1BE80BDF80330002B40F070
:10436000B980052A02D0370740F0D380304601F0EB
:10437000FFFBC3E7C3F34117002FB9D1DB099DF859
:10438000021080D101390829B2D801A353F821F0D5
:1043900085440000F142000065440000F142000045
:1043A00039440000F1420000F1420000F1420000F7
:1043B000A544000003A99DF80500FEF717F806467E
:1043C000002800F0A4806A469DF80C10FEF734F82F
:1043D0000628044690D19DF8013013F0600F7FF459
:1043E00049AF104A9DF80C1012789DF802C0DF0901
:1043F00040F03E81BCF10B0F7FF43CAF052A40F04A
:104400008880BDF80330FF2B00F2248130469DF8F0
:104410000320FEF769F804466EE700BF00050020A0
:104420005C700240D8040020F4040020387E0000B4
:10443000F804002004050020B14C2378033B022B34
:1044400067D8FEF7E1F82378042B3FF457AFAD4A65
:10445000AD481378042123F0020313702170FEF796
:1044600019F94BE7BDF80330012B7FF441AFFDF79D
:10447000AFFF002800F0EC80A24A137843F002035B
:1044800013703BE7BDF80330012B7FF431AFFDF72C
:104490009FFF002800F0DC809A4A137823F0020383
:1044A00013702BE7964C2378043B012B31D89DF8F1
:1044B0000330002BC5D0012B40F0CC80FEF750F824
:1044C0002378052B3FF41AAF05238F482370FEF79E
:1044D000E1F813E70624CDE60E24CBE68B4B1B78E0
:1044E000082B0ED18A4B1B681B070AD1894B1B680E
:1044F00013F0F00F05D1884B1B6813F0F00F3FF459
:1045000019AE01F0D9FB16E62046FDF791FB102409
:10451000B0E60824AEE63407DCD4BDF80330002B47
:10452000D8D1052A01D03007F3D1304601F058FB2D
:10453000304601F029FBE1E6BDF807A0BAF1090F0A
:1045400028BF4FF0090AFDF74BFF0646002800F090
:10455000D380BB464FF00909CDF80CB04FF00008EE
:1045600001E008F101087268012357683146002212
:1045700003A8B8470028F4D13268337A16681C447F
:10458000C144E4B2002EE7D1644E6549304652463C
:1045900002F030FF3471A6F80290FDF719FF18B150
:1045A000F37943F02003F371FDF71AFF5D4BBDF87B
:1045B000072018600020C3E9016ADA60FDF730FBCC
:1045C00059498020FDF77CFF044600287FF48BAE1C
:1045D00001F086FB802897D1544B93E8030085E8CF
:1045E00003002046FDF724FB88E6454A1278052A99
:1045F00054D0042A7FF47CAE484E3770BDF80730A3
:10460000012B1C4628BF0124012B7FF65DAE8020C4
:1046100001F09EF90123B3FBF0F303FB00F3C3F1B8
:10462000010383F0010350E69DF80430022B83D090
:10463000032B42D0012B7FF45BAE0DF1010012225F
:104640003B49FFF717FD0446062C7FF455AE4FE6B5
:104650000F240FE607240DE6802001F079F90223EC
:10466000B3FBF0F303FB00F39A1E54425441F0E510
:10467000BCF1000F32D0BCF10A0F7FF4FBAD052A6C
:104680007FF447AF3046FDF765FF24493A4608708E
:104690000DF10100FFF7EEFC04462DE61F4E3370CE
:1046A000ACE7802001F054F90223B3FBF0F303FBE5
:1046B00000F39F1E7B427B4107E6BDF805109DF885
:1046C000030000F07DF8014600283FF411AE0DF123
:1046D00001000A78FFF7CEFC0446B5E7052A7FF40F
:1046E00018AF0E4B0DF1010019460222A3F800C0CD
:1046F000FFF7C0FC0446FFE54FF0090944E700BF9F
:10470000D8040020F4040020387E0000E00F00F000
:10471000E40F00F0E80F00F0EC0F00F004050020BB
:104720003C7E0000DC040020787E0000707E0000EB
:104730005C7E000038B505460C4601F0D1FAA8426F
:1047400007D194E80300044A82E8030000231846D6
:1047500038BD1023184638BDF804002008B14023A6
:1047600003600148704700BF0405002070B54FF09A
:10477000805286B0D2F8A830D2F8A42000926FEA16
:1047800083436FEA93439BB202A80B4A0B4C0D2163
:1047900002F046FE40F21A3302AE2380002504E008
:1047A00016F8013B24F8023F013502A802F08CFE06
:1047B0008542F5D306B070BD807E00006007002002
:1047C00050B1042806D8054B185C20B1044B53F8AF
:1047D000200070470020704702487047FC7E0000B0
:1047E000E87E00008C7E000030B44C689C4208D209
:1047F000002545600968016093420CD0002030BC60
:10480000704743600D6805600868E41A18449342D5
:10481000C1E90004F2D1201C18BF012030BC704750
:1048200010B4D1E900439A4228BF1A46046042609E
:10483000D1E90030801A1344C1E90030003018BFBC
:1048400001205DF8044B70474B689A4228BF1A4616
:1048500062B10B68C0E90032D1E90030801A13441C
:10486000C1E90030101C18BF012070471346F1E762
:1048700010B5084B08491A68084C82B00023012083
:1048800001938DF8040001A823700B70904702B0CB
:1048900010BD00BF700600207406002044050020F3
:1048A000704700BF10B50A4A0A4813680A4982B027
:1048B00000248DF80440D0F82005ADF8060043F040
:1048C00001230968136001A8884702B010BD00BF2A
:1048D0004C0500200070024070060020F8B50C4620
:1048E000D1E900150A4F954228BF154606462A46CB
:1048F000384602F07FFDC6E90075D4E90030401B60
:104900002B44C4E90030003018BF0120F8BD00BFBF
:104910007C060020F8B54C68944228BF14460D462A
:1049200006465CB904607460D5E90032121B23446A
:10493000C5E90032201C18BF0120F8BD034F0968EB
:104940003846224602F056FD3760ECE77C06002030
:1049500010B40B4A0B4C92F89E100B48002303290D
:104960002360037005D0D2F8903013B15DF8044B8A
:1049700070476FF0010105485DF8044B02F03AB949
:10498000500500201C7C0240450500204805002001
:1049900030B51A4A1A4B11781A4C186822680D065D
:1049A00083B001F00F0314D41033012505FA03F38B
:1049B0001A43034222600AD1134B8DF806100622D7
:1049C0001B688DF807508DF8042001A8984703B0A4
:1049D00030BD012505FA03F31A4318402260F6D1D1
:1049E000094B8DF8070006221B688DF806108DF81C
:1049F000042001A8984703B030BD00BF7406002012
:104A0000480500204C0500207006002010B5224B00
:104A1000D3F80044C3F8004482B0BFF36F8FBFF3F4
:104A20004F8FBFF36F8FBFF34F8FE1050BD51B4B3C
:104A30001B4A1B6800210220019101218DF804000E
:104A400001A811709847A2050AD5144B14491A6899
:104A50000320002301938DF8040001A80B709047F8
:104A6000630517D50E4B1A78A2B10B4C0D480121E6
:104A700000221A70C4F808150160BFF36F8FBFF3EE
:104A80004F8F064B019204228DF804200DEB02009B
:104A90001B68984702B010BD0070024070060020ED
:104AA000440500205870024010B5104A104C92F88E
:104AB0008E10104800230329236082B0037002D0B7
:104AC000D2F880300BB102B010BD6FF080710A488F
:104AD00002F090F8094B062108221B688DF804109B
:104AE000ADF8062001A8984702B010BD500500207F
:104AF0001C7C02404505002048050020700600206F
:104B000010B5144A144C92F81E11144800230329BE
:104B1000236082B0037004D0D2F8103143B102B0E8
:104B200010BD6FF480710E4802F064F802B010BD41
:104B30006FF480710A4802F05DF80A4B0621882262
:104B40001B688DF80410ADF8062001A8984702B044
:104B500010BD00BF500500201C7C02404505002010
:104B6000480500207006002010B40B4A0B4C92F848
:104B7000AE100B48002303292360037005D0D2F840
:104B8000A03013B15DF8044B70476FF00201054887
:104B90005DF8044B02F02EB8500500201C7C02404A
:104BA000450500204805002010B40B4A0B4C92F834
:104BB000BE100B48002303292360037005D0D2F8F0
:104BC000B03013B15DF8044B70476FF00401054835
:104BD0005DF8044B02F00EB8500500201C7C02402A
:104BE000450500204805002010B40B4A0B4C92F8F4
:104BF000CE100B48002303292360037005D0D2F8A0
:104C0000C03013B15DF8044B70476FF008010548E0
:104C10005DF8044B01F0EEBF500500201C7C024003
:104C2000450500204805002010B40B4A0B4C92F8B3
:104C3000DE100B48002303292360037005D0D2F84F
:104C4000D03013B15DF8044B70476FF01001054888
:104C50005DF8044B01F0CEBF500500201C7C0240E3
:104C6000450500204805002010B40B4A0B4C92F873
:104C7000EE100B48002303292360037005D0D2F8FF
:104C8000E03013B15DF8044B70476FF02001054828
:104C90005DF8044B01F0AEBF500500201C7C0240C3
:104CA000450500204805002010B40B4A0B4C92F833
:104CB000FE100B48002303292360037005D0D2F8AF
:104CC000F03013B15DF8044B70476FF040010548B8
:104CD0005DF8044B01F08EBF500500201C7C0240A3
:104CE000450500204805002010B40B4A0B4C92F8F3
:104CF0000E110B48002303292360037005D0D2F85E
:104D0000003113B15DF8044B70476FF08001054826
:104D10005DF8044B01F06EBF500500201C7C024082
:104D200045050020480500202DE9F04FDFF8EC9202
:104D3000DFF8D8A2D9F80030DAF80040234087B075
:104D400000F0CA80DFF8D8B293FAA3F4B4FA84F47E
:104D5000E7B2A7F11005EDB205F00F0633010F2CF5
:104D60000BEB03084CDCDFF8BCA207F00F064FEAA0
:104D700006180AEB080504A8AA8969685AF80830D9
:104D8000984708B94AF80800974BDFF874C28222A6
:104D90001A60D9F800300599012000FA04F223EADC
:104DA0000202AB688CF800000B443C07C9F80020F5
:104DB000AB60049800F1CB80B20093199B0003F123
:104DC000804303F51C33C3F80006C3F80416874B71
:104DD0001B78082B67F07F0510D1854B1B681B07DC
:104DE0000CD1844B1B6813F0F00F07D1824B1F6866
:104DF00017F0F00700F0B280002D51DA042350E0E4
:104E000015F00802019206F5947240F088807B4903
:104E100051F8222000925BF80330D8F80410B8F85B
:104E20000C201F4604A8009BB8470121049B01FAEF
:104E300004F4E1431BB1059B009A9A4256D808B985
:104E4000C8F80000684B6E4C82221A60D8F808300F
:104E50000598D9F8002003440A40C8F80830019B9F
:104E6000C9F80020012204992270002B37D1B2002A
:104E700093199B0003F1804303F51C33C3F800171B
:104E8000C3F80407594B1B78082B6DB208D1584B57
:104E90001B68190704D1574B1B6813F0F00FA5D0FE
:104EA00028231344DBB203F1804303F51C330122B2
:104EB0001A60BFF36F8FBFF34F8F524A524B13EA02
:104EC000250338BF134633F8162002F1804202F55D
:104ED0001C321368002BFCD007B0BDE8F08F474BA5
:104EE000B200C3F8A017C3F8A407CBE7022488F8E0
:104EF0000E40464801F07EFE454B8DF80F400622DD
:104F00001B688DF80E508DF80C2003A89847DAF82E
:104F10000030D9F8004023407FF416AFDCE7374A71
:104F2000D2F8C0240092D2037FF575AFD8F80410F0
:104F3000D8F80070B8F80C2004A80023B847012165
:104F400001FA04F4E14300287FF47CAF78E72B4BAF
:104F5000B200C3F8A006C3F8A41638E7002DB4BF0A
:104F60004FF004084FF028082649274B294C2A4DBA
:104F7000DFF8B49090445FFA88F8A8BF0B4608F1B8
:104F8000804803EB460A08F51C3844F0010401266A
:104F90002F60BFF36F8FBFF34F8FC8F80060BFF370
:104FA0006F8FBFF34F8F8020A0472B68002BEFD06F
:104FB0004FF4F060A047D9F800309B0605D480205C
:104FC000A047D9F800309E06F9D54020A047BAF88E
:104FD000003003F1804303F51C331B68002BD6D04F
:104FE00007B0BDE8F08F00BF1C7C0240E00F00F06E
:104FF000E40F00F0E80F00F0EC0F00F0007002404A
:1050000045050020447F0000247F00004805002063
:1050100070060020107F0000047102404C05002043
:1050200050050020E00500207474024010B5154AB8
:105030001548917F154C00230329036082B023702B
:1050400005D013696BB1FFF76FFE02B010BD6FF4AE
:1050500000310F4801F0CEFD2378002BF3D002B0D1
:1050600010BD6FF400310A4801F0C4FD094B062160
:1050700001221B688DF80410ADF8062001A898479E
:10508000EAE700BF500500201C7C024045050020D7
:10509000480500207006002010B5154A154892F802
:1050A0002E10154C00230329036082B0237005D015
:1050B000136A6BB1FFF738FE02B010BD6FF48021A8
:1050C0000E4801F097FD2378002BF3D002B010BDFD
:1050D0006FF48021094801F08DFD094B0621022261
:1050E0001B688DF80410ADF8062001A89847EAE780
:1050F000500500201C7C024045050020480500208A
:105100007006002010B5154A154892F83E10154C4F
:1051100000230329036082B0237005D0136B6BB1A9
:10512000FFF702FE02B010BD6FF400210E4801F03F
:1051300061FD2378002BF3D002B010BD6FF4002185
:10514000094801F057FD094B062103221B688DF821
:105150000410ADF8062001A89847EAE750050020A2
:105160001C7C0240450500204805002070060020F8
:1051700010B5164A164892F84E10164C0023032913
:10518000036082B0237005D0136C6BB1FFF7CCFDC8
:1051900002B010BD6FF480110F4801F02BFD237891
:1051A000002BF3D002B010BD6FF480110A4801F05B
:1051B00021FD0A4B042206211B688DF80410ADF86E
:1051C00006200DEB02009847E9E700BF50050020DC
:1051D0001C7C024045050020480500207006002088
:1051E00010B5154A154892F85E10154C0023032996
:1051F000036082B0237005D0136D6BB1FFF794FD8F
:1052000002B010BD6FF400110E4801F0F3FC2378DA
:10521000002BF3D002B010BD6FF40011094801F06B
:10522000E9FC094B062105221B688DF80410ADF836
:10523000062001A89847EAE7500500201C7C0240A0
:1052400045050020480500207006002010B5154ACD
:10525000154892F86E10154C00230329036082B0A4
:10526000237005D0136E6BB1FFF75EFD02B010BD69
:105270006FF480010E4801F0BDFC2378002BF3D0C1
:1052800002B010BD6FF48001094801F0B3FC094A77
:10529000062312688DF80430ADF8063001A8904757
:1052A000EBE700BF500500201C7C024045050020B4
:1052B000480500207006002010B5154A154892F8E0
:1052C0007E10154C00230329036082B0237005D0A3
:1052D000136F6BB1FFF728FD02B010BD6FF4000132
:1052E0000E4801F087FC2378002BF3D002B010BDEC
:1052F0006FF40001094801F07DFC094B06210722EB
:105300001B688DF80410ADF8062001A89847EAE75D
:10531000500500201C7C0240450500204805002067
:105320007006002010B5284A284C917B284800239D
:105330000329236082B003701ED0146864B1254B2A
:105340001B78082B1FD0244B01221A60BFF36F8FEC
:10535000BFF34F8F02B010BD6FF480311F4801F0D2
:1053600049FC1F4BADF8064006221B688DF804204F
:1053700001A8984702B010BD6FF48031174801F0C2
:1053800039FC02B010BD174B1B681B07DBD1164B55
:105390001B6813F0F00FD6D1144B1B6813F0F00FFD
:1053A000D1D1EFF3108172B60B4B01221A60BFF31B
:1053B0006F8FBFF34F8F1A60BFF36F8FBFF34F8FA5
:1053C00081F3108802B010BD500500201C7C024003
:1053D00045050020E00F00F04C7002404805002019
:1053E00070060020E40F00F0E80F00F0EC0F00F072
:1053F0002DE9F043384BD3F86C44C3F86C4483B0C8
:10540000BFF36F8FBFF34F8FBFF36F8FBFF34F8F1C
:10541000324B1B78082B48D05CB3DFF8DC80304D72
:10542000DFF8D8900127062694FAA4F3B3FA83F3A1
:10543000D8F80000296807FA03F20F2B02EA000CE3
:1054400024EA0204D8B241EA020E1ADC60F07F03BB
:10545000C5F800E001A8BCF1000F08D18DF80630B6
:105460008DF804608DF807C0D9F800309847002CFB
:10547000DAD11C4B1B780BB9FFF756FC03B0BDE823
:10548000F083A0F11003C5F800E001A8BCF1000F03
:10549000EDD18DF806308DF804608DF80770D9F8DD
:1054A00000309847002CBFD1E3E70F4B1B681B0768
:1054B000B2D10E4B1B6813F0F00FADD10C4B1B6833
:1054C00013F0F00FA8D10B4A136803F0011123F079
:1054D000011311601C439FE700700240E00F00F0D1
:1054E0004C05002045050020E40F00F0E80F00F017
:1054F000EC0F00F078060020480500207006002020
:10550000002800F08E8030B4474C2278002A40F00A
:1055100085804649464B08604FF4007540210120C4
:10552000207083F89E20C3F89020C3F8982083F859
:10553000AE20C3F8A020C3F8A82083F8BE20C3F88B
:10554000B020C3F8B82083F8CE20C3F8C020C3F839
:10555000C82083F8DE20C3F8D020C3F8D82083F811
:10556000EE20C3F8E020C3F8E82083F8FE20C3F85B
:10557000F020C3F8F82083F80E21A3F89C10A3F8BC
:10558000AC10A3F8BC10A3F8CC10A3F8DC10A3F85F
:10559000EC10A3F8FC10A3F80C11C3F80021A3F839
:1055A0001C51C3F8082183F81E21C3F81021C3F849
:1055B000182199819A731A609A6099839A771A616F
:1055C0009A61998583F82E201A629A62998783F8E6
:1055D0003E201A639A63A3F84C1083F84E201A6495
:1055E0009A64A3F85C1083F85E201A659A65A3F8A4
:1055F0006C1083F86E201A669A66A3F87C1083F804
:105600007E201A679A67A3F88C5083F88E20C3F81F
:105610008020C3F88820104630BC7047082030BC7A
:1056200070470720704700BF460500207006002025
:1056300050050020054B1A78012A04D1044A0020A5
:105640001060187070470820704700BF46050020A2
:1056500070060020F8B55C4B4FF40062C3F80024DC
:10566000BFF36F8FBFF34F8F584B1B78082B00F0A1
:1056700081800020FCF7D4FA554B1A68002A55D1D6
:10568000544949F27532C0201A6008601A6000203F
:10569000FCF7CEFA4C4A0123C2F80035BFF36F8FF6
:1056A000BFF34F8FD2F800341905FBD54FF40063D8
:1056B000C2F80034BFF36F8FBFF34F8F0020FCF7A9
:1056C000AFFA434B1A68002A2CD1424849F275318F
:1056D0001960026019600020FCF7AAFA3B4B1B78A6
:1056E000082B27D03C493D4B40F2E3704022086034
:1056F0001A60BFF36F8FBFF34F8F334E384B39496A
:10570000394D3A4C3A483B4A8027C6F81C7540F25E
:10571000FF161E6000230B6002212B6023700370B4
:105720001170F8BD2B4B00221A60D4E7294BC02220
:105730001A60ACE7304B1B681B07D3D12F4B1B689B
:1057400003F0F003102BCDD12D4B1C6814F0F004A6
:10575000C8D12046FCF764FA1D4B1A68002A2FD1E5
:10576000284849F275311960026019600020FCF781
:105770005FFAB7E7204B1B6818077FF47AAF1F4B1F
:105780001B6803F0F003102B7FF473AF1C4B1868F9
:1057900010F0F0007FF46DAFFCF742FA0C4B1A6882
:1057A00052B9184949F2753203201A6008601A602C
:1057B0000020FCF73DFA5CE7124B03221A60F7E782
:1057C000104B1C60D2E700BF00700240E00F00F0F9
:1057D00000EC064014EC06400078024004780240D9
:1057E0004C050020480500201C7C02404505002097
:1057F0007406002046050020E40F00F0E80F00F0DA
:10580000EC0F00F014ED06401A4B002210B41A7091
:10581000C8B9194B1B78082B17D01849184A194BCF
:10582000C2F80413E0248021012083F82743C3F841
:1058300084115960C2F80405BFF36F8FBFF34F8F17
:105840005DF8044B70471049E8E7104B1B681B07D5
:10585000E3D10F4B1B6813F0F00FDED10D4B07495E
:105860001A6803F18F5303F21B4312F0F00F08BFC5
:105870001946D3E744050020E00F00F00714C001EB
:105880000070024000E100E00714E001E40F00F0C6
:10589000E80F00F0EC0F00F0024B1878003018BF52
:1058A0000120704746050020034B1878012894BF5B
:1058B00000200120704700BF4605002010B50020E1
:1058C000FCF7AEF9144B1B7803F0FF0483B1134AC5
:1058D000D2F82C358BB10021114BC2F82C151A6867
:1058E0008AB9104949F27532C0201A6008601A60FE
:1058F0000020FCF79DF9204610BD1C460020FCF757
:1059000097F9204610BD074BC0221A600020FCF713
:105910008FF9204610BD00BF4405002000700240F2
:1059200000EC064014EC0640024B034AC3F808237F
:10593000704700BF0070024004148001024B034A0C
:10594000C3F80423704700BF0070024004148001B4
:10595000064B10F0800FA3F1900200F00F0008BF7B
:10596000134603EB00139889704700BFE005002041
:10597000064A010600F00F034CBFD2F81005D2F81A
:105980001405D84000F00100704700BF00700240CD
:105990002DE9F84347B2002F00F00F0504464FF001
:1059A0000000B4BF80464FF010080E46FCF738F9EF
:1059B00055B9354B1B78A34206D010240020FCF7C4
:1059C00037F92046BDE8F883304BDFF8E8C01C68A3
:1059D000DCF80030E443A8444FF0010EA4B20EFA04
:1059E00008FE1C4314EA0E0426D12DB205EB450037
:1059F000002F4FEA80004FEA051524DB244A254F8B
:105A00002549515102EB0508074496E8070043EA8F
:105A10000E03224DCCF800308026002387E80700D3
:105A2000C8E9017388F80E300020C5F80461FCF75E
:105A3000FFF82046BDE8F88311240020FCF7F8F8B1
:105A40002046BDE8F8833168DFF86C90144FB268E7
:105A500001F06041B1F1005F09EB0508074402F075
:105A6000010204D042B90F4A49F80520CDE73AB9FE
:105A70000D4A49F80520C8E70C4A49F80520C4E753
:105A80000B4A49F80520C0E7740600204C050020A9
:105A900050050020E8070020E947000000E100E091
:105AA0007C070020DD480000214800001549000067
:105AB0004948000048050020E00500202DE9F0419C
:105AC00046B2002E00F00F0504464FF00000B4BFB0
:105AD00080464FF010080F46FCF7A2F855B91D4B51
:105AE0001B78A34206D010240020FCF7A1F8204622
:105AF000BDE8F081184B19491C680A68E443A844C2
:105B00000123A4B203FA08F314431C401BD1144828
:105B1000DFF850C0A0F1900E10EA260638BF764696
:105B20002D017019134384603A6872517D68456095
:105B3000802284730B600020CCF80421FCF778F8F5
:105B40002046BDE8F08111240020FCF771F82046C2
:105B5000BDE8F081740600204C05002048050020B7
:105B6000E005002000E100E0004870477C060020CE
:105B7000044B40F48070C3F81805BFF36F8FBFF378
:105B80004F8F704700700240034BC3F81805BFF3F6
:105B90006F8FBFF34F8F704700700240010718D41A
:105BA000020600F00F0309D40B4A9B001A44506808
:105BB000A0F10100B0FA80F04009704703F584734A
:105BC000064A52F82300A0F10100B0FA80F0400923
:105BD00070470020704700BF4074024000700240D0
:105BE000064BC3F80C05BFF34F8F40F48070C3F829
:105BF0000C05BFF36F8FBFF34F8F704700700240EB
:105C000010B508220021044601F002FC0E4BD3F827
:105C100080242270D3F884246270D3F88824D3F8C7
:105C20008C1442EA01226280D3F89024D3F89414B1
:105C300042EA0122A280D3F89824D3F89C3442EAA5
:105C40000323E38010BD00BF00700240154B1B789A
:105C5000082B07D0144B01221A60BFF36F8FBFF3DC
:105C60004F8F7047114B1B681B07F3D1104B1B68FC
:105C700013F0F00FEED10F4B1B6813F0F00FE9D1CA
:105C8000EFF3108172B6084B01221A60BFF36F8FD9
:105C9000BFF34F8F1A60BFF36F8FBFF34F8F81F346
:105CA00010887047E00F00F04C700240E40F00F0E5
:105CB000E80F00F0EC0F00F0034B01221A60BFF375
:105CC0006F8FBFF34F8F704750700240034B01221C
:105CD0001A60BFF36F8FBFF34F8F7047547002404D
:105CE000014B1878704700BF7406002070B52A4B2E
:105CF0001B78082B044646B221D00020FBF790FF0A
:105D0000264D002EB4BF0022102204F00F0081188F
:105D10002B6801228A4023EA020314F008042B6056
:105D200008D100F594701E4B43F82040BFF36F8FED
:105D3000BFF34F8F0020BDE87040FBF779BF194BD0
:105D40001B681B07D9D1184B1B6813F0F00FD4D177
:105D5000164B1D6815F0F005CFD12846FBF760FF04
:105D6000002E0E491248134E04F00F04B4BF002257
:105D700010222244012303FA02F20B6823EA0203F1
:105D80000B6040F2C57303EB4404046035602846A1
:105D9000BDE87040FBF74CBFE00F00F04C05002061
:105DA00000700240E40F00F0E80F00F0EC0F00F08C
:105DB00000780240047802402DE9F04F474C484FEC
:105DC000DFF828A1236897F80090DAF80020454909
:105DD000DB439BB219F0800F83B043EA020309F062
:105DE0000F08D1F880541FD108F110020126964007
:105DF00033422FD13C4E0DF1040805F080056FF0C1
:105E000001113A483D7000F0F5FE23683268052123
:105E1000002543F00103019540468DF804102360EE
:105E2000904703B0BDE8F08F4FF0010B0BFA08FB71
:105E300013EA0B0FDED00020FBF7F2FE2268DAF83F
:105E4000003063EA020111EA0B0F23D10DF10408BF
:105E5000254E1BE00020FBF7E3FEDAF80030244972
:105E60004FEA081836EA030001EB080B32D122682A
:105E700041F80800F64333403240CAF8003022604F
:105E80000323194E8BF80E300DF104080020FBF7A8
:105E9000CFFEB2E71749144E8DF806904FEA081866
:105EA00001EB080023EA0B034FF0000C41F808C097
:105EB000CAF80030062103230DF1040842EA0B0260
:105EC00083738DF807308DF80410336822604046E4
:105ED0009847DBE74846FFF709FFD1E74C0500206C
:105EE0007406002000700240700600204805002063
:105EF00050050020E00500202DE9F8437F4BD3F842
:105F000004C3BCF1000F00F0D98000252F46614684
:105F1000012691FAA1F37A4AB3FA83F39800024476
:105F200006FA03F014681CBB8143F2D1754B1B7851
:105F3000082B2CD0744F05F4000635F400050ED064
:105F4000DFF8E0914FF0010895FAA5F4B4FA84F473
:105F500059F8243008FA04F49847A543F4D13B7863
:105F60000BB9FEF7E1FE002E40F09680BDE8F88305
:105F70001760BFF36F8FBFF34F8F06FA03F3994398
:105F800045EA0305C5D15F4B1B78082BD2D15F4B87
:105F90001B681C07CED15E4B1B6813F0F00FC9D1F4
:105FA0005C4B594F1B6813F0F00FC4D13B78002BAA
:105FB00076D1A8027BD5584A584BDFF85CE1574EA2
:105FC00040F2A97111601968534A11F0FF0118BF1E
:105FD0001B6840F2AA7018BF1940504B10601A6835
:105FE0004E4812F0FF021CBF1B681A404A4B40F299
:105FF000AB741C60036813F0FF031CBF0068034010
:1060000040F2AC70CEF8000030680140444808D03F
:10601000046840F2A9780C430460CEF80080316037
:1060200031683D4E3D4C40F2AD71316021680A400F
:1060300009D0016840F2AA7E41EA02410160C6F837
:1060400000E0226022683449344A40F2AE740C60A9
:10605000126813400ED0D90748BF45F400052E49F9
:10606000DA062E4A40F2AB740C601360136848BF26
:1060700045F00105036833F001121CBF0CF080717C
:106080000D4313F0011F3FF456AF1CF4806F1CBF8B
:10609000026045F480654EE7BDE8F843FFF78CBE2B
:1060A00005F4000635F400057FF44AAF5BE705F41C
:1060B000000635F400057FF443AF52E7114B1B781F
:1060C000082B08D0104B1B78002B7FF44FAFBDE896
:1060D000F843FEF729BE0D4B1E6816F00F0606D1D9
:1060E0005D6815F0F0053FF45BAF074F37E7064BEF
:1060F0001E78002E3FF435AF38E700BF0070024035
:1061000000710240E00F00F045050020E40F00F0B0
:10611000E80F00F0EC0F00F0007802400478024035
:1061200078060020587F000070B545B2002D00F0C1
:106130000F0432DB234B244A195D012303FA01F1DA
:10614000C2F80413D2F81415E140C90724D4D2F8D8
:106150001415A3400B43C2F81435BFF36F8FBFF380
:106160004F8FCCB1002D17DB10F0080514D1064677
:106170002846FBF755FD3046FFF7B8FD13491034AC
:106180000B68012202FA04F423EA04030B60284698
:10619000BDE87040FBF74CBD70BD0D4B0A4A195D60
:1061A000012303FA01F1C2F80413D2F81015E140FB
:1061B000CE07F1D4D2F81015A3400B43C2F8103526
:1061C000CBE700BF387F0000007002404805002088
:1061D000187F0000F0B5044683B00020FBF720FDD7
:1061E00004F00F0322064FEA03101AD4244E254D63
:1061F000316803F110020123934033EA010205EBF9
:10620000000739D1204C2A502268DB431940134043
:10621000316023600323BB730020FBF709FD03B04B
:10622000F0BD194F164E3D683168012261EA050C38
:1062300002FA03F31CEA030FEED0DFF854C08DF826
:10624000064021EA03010CEB000E31600F4C0021E7
:106250004CF80010032206212B438EF80E208DF8F7
:1062600007208DF8041022683B6001A890470020A9
:10627000FBF7DEFC03B0F0BD2046FFF737FDC9E7B2
:1062800048050020500500204C0500207006002025
:10629000E00500204B4B5B681B0600D470472DE9DE
:1062A000F04F494FDFF82C913E68D9F80030360C9A
:1062B00036041E4383B049D04FF00108DFF818A11F
:1062C00008E0103CE4B214F0080055D008FA05F5D7
:1062D000AE433BD096FAA6F5B5FA85F50F2DECB294
:1062E000EFDC14F0080BF1D15846FBF799FC386845
:1062F000D9F8001004F00F0261EA000C08FA02F36A
:106300001CEA030F1BD012010AEB020C4AF802B080
:1063100003228CF80E208DF807202C4A21EA030175
:1063200064F07F044FF0060E0343C9F800108DF8A7
:1063300006408DF804E012683B6001A890470020F9
:10634000FBF776FC08FA05F5AE43C3D1204B40F2CB
:10635000FF1100223960C3F80425BFF36F8FBFF32C
:106360004F8F184980204FF0FF32C1F88400C3F8E6
:10637000082303B0BDE8F08FFBF752FC04F00F02D6
:1063800002F11003D9F80000DFF850C008FA03F357
:10639000120133EA00010CEB020B0FD13C684CF800
:1063A0000210DB4318402340C9F800003B60032380
:1063B0008BF80E300020FBF73BFCC3E72046FFF7CD
:1063C00095FCF4E700E100E04C0500207006002099
:1063D0000070024048050020E00500205005002024
:1063E0002DE9F04F544B5B681B0683B015D4534A1C
:1063F0000023D2F80413C2F80813C2F80035BFF323
:106400006F8FBFF34F8F4E494E484F4A0B600121AB
:106410000370117003B0BDE8F08F4C4FDFF834917A
:106420003E68D9F80030360C36041E4349D04FF090
:106430000108DFF824A108E0103CE4B214F00800E1
:1064400053D008FA05F5AE433BD096FAA6F5B5FA57
:1064500085F50F2DECB2EFDC14F0080BF1D15846A6
:10646000FBF7DEFB3868D9F8001004F00F0261EA90
:10647000000C08FA02F31CEA030F1BD012010AEB0E
:10648000020C4AF802B003228CF80E208DF8072087
:106490002F4A21EA030164F07F044FF0060E034304
:1064A000C9F800108DF806408DF804E012683B60D2
:1064B00001A890470020FBF7BBFB08FA05F5AE43A7
:1064C000C3D11E4B40F2FF1100223960C3F80425EE
:1064D000BFF36F8FBFF34F8F174980204FF0FF320C
:1064E000C1F88400C3F8082381E7FBF799FB04F0A7
:1064F0000F0202F11003D9F80000DFF860C008FABB
:1065000003F3120133EA00010CEB020B0FD13C68DC
:106510004CF80210DB4318402340C9F800003B60F0
:1065200003238BF80E300020FBF782FBC5E72046E3
:10653000FFF7DCFBF4E700BF00E100E00070024081
:106540001C7C024045050020460500204C0500202B
:106550007006002048050020E005002050050020BE
:106560002DE9F043054683B00020FBF759FB05F009
:106570000F0401236EB203FA04F2002E6FEA020741
:106580004FEA041136DBDFF8F0C03648DCF80020B3
:1065900004F1100E03FA0EF333EA020E00EB0108C9
:1065A0005CD1314D40F801E02968DB431A400B40D3
:1065B000CCF800202B60032388F80E300020FBF776
:1065C00037FB2A4AD2F814351F40C2F81475BFF3BE
:1065D0006F8FBFF34F8F264B264A244912EA2602BB
:1065E00038BF1A460123125D9340C1F8083303B047
:1065F000BDE8F083DFF870E0DFF87CC0DEF8000073
:10660000DCF8003063EA000818EA020F1CD0DFF85B
:106610006C808DF806503B40CCF8003008EB01054B
:10662000DFF85CC04FF00009032348F80190062111
:106630000243AB738DF807308DF80410DCF800309E
:10664000CEF8002001A898470020FBF7F1FA074A8E
:10665000D2F810351F40C2F81075B8E72846FFF78A
:1066600045FBA8E7500500204C05002000700240C3
:10667000387F0000187F000048050020E00500205A
:10668000700600202DE9F04F002085B0FBF7C8FA16
:10669000584B1B783BB900270020FBF7C9FA384656
:1066A00005B0BDE8F08FDFF86481DFF864A1D8F8A9
:1066B000006003F0FF07360CDAF8003036041E43A2
:1066C0004CD04FF00109019708E0103CE4B214F0FF
:1066D000080059D009FA05F5AE433ED096FAA6F562
:1066E000B5FA85F50F2DECB2EFDC14F0080BF1D103
:1066F0005846FBF795FAD8F80000DAF8001004F0D5
:106700000F0261EA000C09FA02F31CEA030F1DD024
:10671000394F120107EB020C47F802B003228CF844
:106720000E208DF80F20354A21EA030164F07F0422
:106730004FF0060E0343CAF800108DF80E408DF896
:106740000CE01268C8F8003003A890470020FBF75F
:106750006FFA09FA05F5AE43C0D1019F284A40F20D
:10676000FF13C8F80030D2F8003413F4007392D14C
:106770000121C2F82C15D2F8001411F400712BD0AD
:10678000C2F82C351F4687E7FBF74AFA04F00F02E0
:1067900002F11003DAF80000DFF878C009FA03F319
:1067A000120133EA00010CEB020B11D1D8F80040C2
:1067B0004CF80210DB4318402340CAF80000C8F828
:1067C000003003238BF80E300020FBF731FAC0E7CE
:1067D0002046FFF78BFAF4E70A4B1A6832B90A48E9
:1067E00049F2753119600260196055E7064B19606E
:1067F00052E700BF44050020E0050020700600209D
:106800000070024000EC064014EC06404C050020ED
:10681000480500205005002010B568B90E4CA3684B
:10682000012262703BB1D3E900230020A2609847A7
:10683000A368002BF7D110BD0128FCD1064C2369B9
:10684000A070002BF7D0D3E90023012022619847E4
:106850002369002BF7D110BDBC06002038B50A4CC7
:10686000237813B18525284638BD08486360A360A6
:106870002361E36000F08AF8054600F093F80123F5
:106880002370284638BD00BFBC06002019680000F0
:1068900038B5154DAB78044673B110B1436801208B
:1068A00098470020FBF7BCF9EB680133EB60002050
:1068B000BDE83840FBF7BCB903F0FF00FBF7B0F9C7
:1068C00064B12A6942B1944208D0134601E09C4267
:1068D00004D01B68002BFAD122602C61EB68002BDE
:1068E000E2D100F077F8DFE7BC0600204FF08043EC
:1068F000D3F81804C0F30040704700BF38B5154DF9
:106900006B78044673B110B14368002098470020AB
:10691000FBF786F96B6801336B600020BDE83840F7
:10692000FBF786B903F0FF00FBF77AF964B1AA68B8
:1069300042B1944208D0134601E09C4204D01B6847
:10694000002BFAD12260AC606B68002BE2D100F022
:1069500059F8DFE7BC06002038B50B4C0020FBF7E8
:106960005FF96368013B6360656825B10020BDE89D
:106970003840FBF75DB900F057F865700020BDE8BE
:106980003840FBF755B900BFBC060020044A137914
:1069900023B9012110609180184670478520704707
:1069A000D0060020094B1A68D20706D40122E02144
:1069B00083F80013C3F880211A604FF08041044A25
:1069C0000123C1F818351370704700BF00E100E0E3
:1069D0005408002010B4094B094A0021196083B003
:1069E0001B680193019C4FF0804102200123C1F8F4
:1069F0000403136003B05DF8044B704704010040CA
:106A000008000040074B00221A6082B01B68019307
:106A100001994FF080430122C3F804231A6002B0A9
:106A2000704700BF00010040074B01221A604FF081
:106A30008042D2F80C3403F00113B3F1011FF8D0F7
:106A4000024B00225A71704704000040D00600201B
:106A500010B5154B1A6882B062B10021134A196053
:106A60001B68507900934FF080410123009CC1F8CE
:106A70000833A8B10E4B1A6882B100221A601B6855
:106A800001934FF080420221084B0198C2F808138D
:106A90001B68012002B0BDE81040184702B010BDCD
:106AA000116853718847E5E700010040D0060020D7
:106AB0000401004099B110B4B2FBF3F403FB1424B9
:106AC000A4B244B9C0E9001484608281C381204625
:106AD0005DF8044B704709205DF8044B70470E20A9
